:400000000080002011000000D1020000D102000008B5044B1A6803F53F5302331A6000F059F900BFFA46004010B5054C237833B9044B13B10448AFF300800123237010BD7F
:400040009081FF1F00000000183A0000084B10B51BB108480849AFF300800848036803B910BD074B002BFBD0BDE81040184700BF00000000183A00009481FF1F0881FF1F8D
:400080000000000010B501F0F1F8054B1C6801F013F9201A01F00AF901F03CF910BD00BFD081FF1F10B501F0E1F8054B1C6801F003F9201A01F0FAF801F02CF910BD00BF72
:4000C000D081FF1F000000002DE9704382B062B60123019301F01EF901F09EF801F002FAFF2001F063F801F0DBF9FF2001F0A2F900F07CFE00F08EFE48F6A04001F0CAF8B8
:4001000001F026FA01F0FCF901F058FA01F02EFA01F066F901F00CF901F01EF800F0C4FF01F0DEFA01F0F0FA614801F051FC614801F076FC002626B9002001F023FC012679
:4001400003E0FF2001F01EFC002600F06BFE0028B8BF404200EB8004A400002001F0D8FA01F0E4FA0546012001F0D2FA01F0DEFA014603F0B9F90146284603F0B5F905468E
:40018000022001F0C5FA01F0D1FA4B4903F068FB0146284603F0A8F90546032001F0B8FA01F0C4FA444903F05BFB444903F058FB0146284603F098F9404903F09DFA02F0D7
:4001C0007FFE02460B4636A1D1E9000101F036FC80468946204602F061FE42464B4602F0C3FE31A3D3E9002302F0E8FF03F056F9044644F62063984201D818B103E044F6AE
:40020000206400E0012472B62D4BB3FBF4F32D4D2B6001F02BF8286801F03CF801F04CF82B68984202D9184601F040F801F072F862B640F66E739C4209D9082000F0FEFFCF
:40024000082001F03FF964091F4B1C6015E0B4F5F77F09D3042000F0F1FF042001F032F9A408194B1C6008E0002000F0E7FF002001F028F96400144B1C60134B18680028C5
:4002800000DA0330C0F3870000F090FF0E4B1868002800DA0330C0F3870001F0CBF84AE799C8C0928FF3F03F00000000C0FFDF4085000000A50000000000A040000040417E
:4002C000001BB700D081FF1FD481FF1FAFF30080FEE700BF08B5104E104D16E029686B68AC68002204E051F8040B43F8040B0432A242F8D1E868002203E0002143F8041B43
:4003000004328242F9D11035013E002EE6D103F049FBFFF7D9FEFEE701000000C83A000008B5134A134B1A60134A136843F40073136000230AE0032B03D8104A52F82310D0
:4003400000E00F490F4A42F8231001332F2BF2D90D4B1A780D4B1A700A4A0D4B1A6000F083F900F05DFA00220A4B1A6008BD00BF0004FA050CED00E014ED00E0000000004F
:40038000D10200000080FF1FBC7600400481FF1F08ED00E00081FF1FFEE700BFF0B40022174611E050F82760F3B226F0FF0608E001EB420511F812406D78A5550132013B38
:4003C000DBB2002BF4D10137282FEBD9F0BC70472DE9F041454B1B78DBB2454C2278D2B2444D2978C9B203F00706434806701B090130037042F00303237041F003032B7011
:4004000048F210203D4B1880B420113318702920103318704120103318702023384803700C2600F26F60067040279D300770023007701126F5300670203003700420314E27
:4004400030704FF0010E623686F800E04FF0100E073686F800E08026DFF8C8C08CF800600CF1080C8CF80060274E337002260CF1270C8CF800600CF1020C8CF800004FF0A0
:40048000080CDFF8A48088F800C008F1040888F800701E4F3E70023787F800C0043787F800E0063738702237387019480670032622300670033003701648174B186005201A
:4004C000053318704FF482731448038006260B300670862607300670023003802970227044220F4B1A70BDE8F08100BFCF010049F8460040F94600406E5800400C51004037
:40050000FD510040225A00409C5A0040D25A0040065B004001010201405B0040465B004076580040935A0040C85A004008B50A46002103F068FA08BD08B503F059FA08BDC0
:4005400038B540F2FF32394B1A801823384A1370002402321480502102321170023214801925023215702E21023211800232137040F257222F490A8002310B7002310A8019
:400580002D4A13702D482E490422FFF7D5FF06222C4B1A705222A3F580731A702A4B1B78DBB22A4A137040F21972294B1A8042F25122023B1A800CE0264B1B7803F00103F7
:4005C00043EA440404F003044FF4F07000F018F9013D0DB1032CEFD115B90320FFF7DCFE1D4A4FF4807313800723137000231B490B704820023108701370053213700222E8
:40060000174B1A7004220A331A70164A137843F03F031370013A137843F001031370013A137843F08003137038BD00BF804000408240004090400040964000400041004022
:40064000940B0048004300400F010049A14600402242004025420040044000400640004001400040A243004038B572B661224C4B1A70FFF765FF4B4A137843F004031370A5
:4006800000240CE0484963001A1952000A4423445B00C8589188FFF749FF0134E4B2052CF0D900240BE04049A3001A1952000A44506A916A1022FFF73FFF0134E4B2002C45
:4006C000F1D04FF090403949FFF768FE0A25384B1D7003223B3B1A8040F2031202331A8040F2032202331A8040F2033202331A8030480421FFF71AFF2F4830490422FFF7AE
:400700001BFF2F4A137843F0020313701032137843F0020313702B4C237843F040032370A2F58632513A137843F010031370264826490822FFF700FF254826490822FFF717
:40074000FBFE254825492A46FFF7F6FE244825490822FFF7F1FE244824490822FFF7ECFE234824490822FFF7E7FE4423224A1370033213708B2102F58C52117002F27D22FF
:400780001370A2F55342B63A137843F008031370FFF71EFE194821460E22FFF7CDFE38BD00480040E8460040203A0000A4000048835800400076004008760040980B0048D8
:4007C00003500140A043004002510040600B0048C2510040680B0048F0510040700B0048125100407C0B004822510040840B0048325100408C0B0048D8020140B0430040BE
:400800000230800803D000BF01380046FCD17047EFF3108072B6704780F31088704700BF0B4A7F2313708021517007E0DA0002F1804202F5F042013BDBB21370002BF5D1DF
:40084000DB0003F1804303F5F04300221A7070470C81FF1F172815D831B103010A495A5C42F020025A5405E0030107495A5C02F0DF025A540001044A835C43F001038354E4
:4008800000207047012070471070004017280CD80001074BC1180A7942F004020A71C25C42F00102C254002070470120704700BF1070004017280BD80001064A835C03F068
:4008C000F10301F0070143EA4101815400207047012070471070004041F6FF73994201D14FF4005141F6FF739A4201D14FF40052172808D8C00000F1804000F5EC408180D0
:40090000C280002070470120704700BF172805D8034B03EB0010417200207047012070471070004017281BD810B4C00000F1804404F5EC44D201D2B201F07F01114321703C
:400940009DF804201201D2B203F00F03134363709DF8083003F00F03A3700020E07001E0012070475DF8044B704700BF10B5FFF74FFF0A4B5B78182B0BD9084A1478013B5F
:400980005370E30003F1804303F5F0431B78137000E0FF24FFF740FF204610BD0C81FF1F10F0800F0CD111F4704F0BD1C00000F1804000F5F04001808270C3700020704764
:4009C000012070470120704710F0800F08D1C00000F1804000F5F0408180C280002070470120704701BE704708B5034B1B7A03FB00F0FFF705FF08BD1481FF1F70B5044672
:400A00000E46074B1D681F2802D90020FFF7EAFF04F01F04103455F8240045F8246070BD08ED00E038B504460D46072902D90020FFF7D8FF1F2C02D90020FFF7D3FF04F057
:400A40001F0000F1604000F564406D01EDB2057038BD00BF10B59DF80840012C4AD10138092826D8DFE800F00525250525250D15251D0F2B02D9214800781BE0204800781B
:400A800018E00F2B02D91F48007813E01E48007810E00F2B02D91D4800780BE01C48007808E00F2B02D91B48007803E01A48007800E0002040B201EB401101FB02F1C90B49
:400AC0008AB20D2B0BD8C3F10E0289B211418AB2124901EB8401013301F8023C05E00F4B03EB84030F2103F8021C013C0B4B23F8242010BD0020FFF775FF10BD1801004966
:400B00001C010049190100491D0100491A0100491E0100491B0100491F010049AC81FF1FF8B50746FFF774FE06460D4D2B7843F003032B700B4C237843F0030323700A4B0E
:400B40001F700320FFF750FF2B7803F0FC032B70237803F0FC0323703046FFF75DFEF8BDF8460040F94600409258004038B50022304B1A7101285BD138222F4B1A7004229D
:400B800002331A70072201331A70002401331C7001331C703F2201331A7002331C7001331C7001331C7001250A331D70502203F527631A70132201331A702B2201331A701F
:400BC00001331C70442203331A70482201331A7002231A4A1370023213701222184B1A70282201331A70EB2201331A705220FFF797FF5822134B1A7001331C7005220533B1
:400C00001A7001331D7001331C700A2201331A7043F233320C4B1A600620294600F052F91820294600F0D4F91D200849FFF7E6FE38BD00BFAC81FF1F004E00408C58004007
:400C40008F58004094580040D881FF1F910E0000F0B583B0284D01272F70284E00247471102000F01DF9102000F0A0F91D200721FFF7D8FE0422224B1A7001331C70073341
:400C80001C70204A137843F0180313701E4B1C7003F2F5231C7001331C700A22A3F209331A7001331C7002331C705B2205331A705E2201331A7004331C701422A3F68C23CE
:400CC0001A700097052049F25B114FF400421023FFF7C0FE2B7806EB830313F8022C0B4B1A702B78013B36F82320094B1A802878FFF73CFF03B0F0BD2481FF1FAC81FF1FEB
:400D000096580040075B0040935800400E4E00400C4E004070B5FFF77BFD06462A4B1B782A4B1A7842F001021A701A7842F010021A7010331A7842F001021A701A7842F01D
:400D400010021A70224D2B7843F002032B70214C237843F0020323701F4A137843F0030313700320FFF740FE2B7803F0FD032B70237803F0FD032370184A137843F006039D
:400D800013707A22164B1A70164A137843F0010313701032137843F0010313700F3A137843F0020313701032137843F0020313704FF000530C4A1360A2F5C07213603046D9
:400DC000FFF72AFD70BD00BF2481FF1FAA430040F8460040F9460040915800407758004082580040A143004080E200E008B5084B9B794BB9064BDB7913F0FF0F01D1FFF79F
:400E000027FF0122024B9A71FFF784FF08BD00BFAC81FF1F024A137843F0010313707047004E0040154B1B7803F00303012B07D8134B1888023B1B889BB243EA004013E071
:400E4000022B0AD10E4B1888023B1B7843EA00430C4A107843EA002006E00B4B188883B2074A108843EA0040084B1B7913F0FF0F02D00022054B5A71704700BF144E004080
:400E8000124E0040114E0040104E0040AC81FF1F704700BF014B188880B2704784400040034B1A7800F0F80010431870704700BF86400040024B187800F00700704700BF52
:400EC0008640004070B504460D46FFF7F3FF0646FFF7E0FF844257D02C4B1B7803F00203DAB296B900B184B938B9294B1C80294A137803F0BF03137070BD264A137843F0D7
:400F000040031370224B1C8070BD22B3002322490B7002260F310E7004310B700C390B7803F07F030B701B4B1B7813F0080F00D08CB91A4B18800721013B1970164B1B7883
:400F400013F0010FFAD111490B7803F0FD030B700021114B19700D4B1B7813F0020F0DD00E4B1C800DB1032200E001220A4B1A70094B1B7813F0010FFAD170BD044B1C80CF
:400F800002490B7813430B7070BD00BFA243004084400040864000400140004002400040014B188880B2704700410040034B1A7800F0F80010431870704700BF0241004082
:400FC000024B187800F00700704700BF0241004070B505460E46FFF7F3FF0446FFF7E0FF854256D02B4B1B7803F0010294B900B185B938B9284B1D80284A137803F0BF037E
:40100000137070BD254A137843F040031370224B1D8070BD22B3002321490B70012413310C7004390B7008390B7803F07F030B701A4B1B7813F0080F00D08DB9194B188084
:401040000721013B1970164B1B7813F0010FFAD110490B7803F0FE030B700021104B19700C4B1B7813F0010F0DD00E4B1D800EB1032200E001220A4B1A70094B1B7813F0E1
:40108000010FFAD170BD044B1D8002490B7813430B7070BDA143004000410040024100400140004002400040054A137843F0010313701032137843F001031370704700BFB4
:4010C000A74300400F490B7803F0FC0200F0030313430B7001280AD10B4B1B78DBB20B4A13700B4B1B78DBB2013213707047094B1B78DBB2054A1370074B1B78DBB2013213
:401100001370704740580040100100493046004014010049AD010049B501004908B50020FFF7D0FF0B4B1A7802F0DF021A701A7802F0FB021A701A7842F008021A7003F2FA
:4011400087231A7802F0E7021A701A7842F010021A7008BD4058004008B5054B1B7823B9FFF7DCFF0122024B1A70FFF79DFF08BDB481FF1F054A137843F00103137010320A
:40118000137843F001031370704700BFA8430040054B1A7802F0FD021A701A7800F0020010431870704700BF20580040014B1870704700BF805B0040094B1B7803F00C0311
:4011C0005B08084A127812F0040F00D0013303F1924393F82031DBB2034A1370704700BF20580040215800400846004008B51822084B1A700133002018701A7842F00802A2
:401200001A701A7842F002021A70FFF7C1FFFFF7D3FF08BD2058004008B5074B1B7823B9FFF7E4FF0122044B1A70FFF7A3FF7820FFF7BCFF08BD00BFB581FF1F08B5064BBD
:401240001A7802F0F3021A701A7800F00C0010431870FFF7B1FF08BD20580040024A137843F080031370704777640040024A137803F07F031370704777640040014B187088
:40128000704700BF84650040014B1878704700BF64650040014B1860704700BF24650040014B1868704700BF44650040014B1860704700BF04650040024B1B78024B186876
:4012C000704700BF046500404465004008B501E0FFF7E6FFFFF7D8FF10F0080FF8D108BD08B548F69F40FFF7D5FF48F69F40FFF7DDFFFFF78DFA064A137843F01003137047
:40130000FFF78AFAFFF7E2FF0020FFF7B7FF08BD9465004008B5054B1B7823B9FFF7E0FF0122024B1A70FFF799FF08BDB681FF1F054A137843F0080313701032137843F004
:4013400008031370704700BFA74300400F490B7803F0FC0200F0030313430B7001280AD10B4B1B78DBB20B4A13700B4B1B78DBB2013213707047094B1B78DBB2054A137031
:40138000074B1B78DBB201321370704743580040130100493646004017010049B3010049BB01004908B50120FFF7D0FF0B4B1A7842F020021A701A7802F0FB021A701A78F1
:4013C00042F008021A7003F527731A7802F0E7021A701A7842F010021A7008BD4358004008B5054B1B7823B9FFF7DCFF0122024B1A70FFF79DFF08BDB781FF1F054A1378D0
:4014000043F0040313701032137843F004031370704700BFA8430040054B1A7802F0FD021A701A7800F0020010431870704700BF28580040014B1870704700BF825B00406B
:40144000094B1B7803F00C035B08084A127812F0040F00D0013303F1924393F82831DBB2034A1370704700BF28580040295800400A46004008B51822084B1A700133002072
:4014800018701A7842F008021A701A7842F002021A70FFF7C1FFFFF7D3FF08BD2858004008B5074B1B7823B9FFF7E4FF0122044B1A70FFF7A3FF7820FFF7BCFF08BD00BF3F
:4014C000B881FF1F08B5064B1A7802F0F3021A701A7800F00C0010431870FFF7B1FF08BD28580040054A137843F0200313701032137843F020031370704700BFA2430040FC
:40150000084A137843F060031370A2F5A652133A137843F0010313701032137843F001031370704777580040054B1A7802F0FC021A701A7800F0030010431870704700BF15
:401540005858004008B50220FFF7EEFF08BD00BF08B5054B1B7823B90122034B1A70FFF7F1FFFFF7CDFF08BDB981FF1F084A137843F060031370A2F5A652133A137843F069
:40158000080313701032137843F008031370704777580040054B1A7802F0FC021A701A7800F0030010431870704700BF5E58004008B50120FFF7EEFF08BD00BF08B5054BCF
:4015C0001B7823B90122034B1A70FFF7F1FFFFF7CDFF08BDBA81FF1F10B5022001214FF4804241F6FF7300F081F9084C20700820012141F6FF72134600F098F960700448CE
:4016000000F0B2F9022000F0B5F910BDBC81FF1F3517000070B52C4C2078FFF737F96078FFF734F9294B1B78FF2B03D1FFF79EF9264B1870254D2A78104608210623FFF748
:40164000AFF9214E341DA4B2287845F6A2312246FFF7BAF930782978FFF758F96B78FF2B02D1FFF783F96870184D6A78104608210723FFF795F968782146154A92B2FFF7DF
:40168000A3F9114C60786978FFF740F920780121FFF7E0F860780121FFF7DCF8FFF7B8F80C4A137843F020031370FFF7B5F80A4B1A7842F001021A701A7842F002021A7002
:4016C0000422064B1A6070BDBC81FF1F2581FF1FE081FF1F9A6400407964004080E200E008B5074BDB6823B9FFF776FF0122044BDA60FFF78FFF00F0BBF8024B1B7808BD80
:40170000BC81FF1F6965004008B500F0BFF808BDC0F10300034B33F81030034A1088181A00B27047E081FF1FEC81FF1F08B500F0B5F808BD704700BF08B50A280FD00C2889
:4017400002D0082806D102E04FF4805209E04FF4807206E00020FFF745F9002201E04FF480620021094B198042F2107303FB02F303F6C413064A82FB0302DB17C3EBE2231A
:40178000044A1360044B198008BD00BFEA81FF1FAD8BDB68F081FF1FEC81FF1F10B5FFF737F80446184A137843F0020313701032137843F00203137002F5AA5210321378BA
:4017C00043F0030313701822104B1A70013B1A7842F040021A701A7802F0FC021A70C822053B1A700222A3F59753123B1A70084A137843F0080313700A20FFF7F5F82046F4
:40180000FFF70AF810BD00BFAB4300400E5900402F5B004010B504460A280DD00C2802D0082804D101E0C22207E0422205E00020FFF7D8F8C22200E08222034B1A702046DB
:40184000FFF77AFF10BD00BF0A59004008B5064A137843F0060313700C20FFF7DBFF0022024B1A8008BD00BF09590040E881FF1F08B5054B1B7823B9FFF7E8FF0122024BF8
:401880001A70FFF78BFF08BDCC81FF1F024A137843F00103137070470859004038B50F4B1B889BB233B10D4B1C8824B204EB8404640001E00A4B1C680A4B1B88C01A00B2FF
:4018C00001F0C6FE084901F017FF0546204601F0BFFE0146284601F0C3FF38BDEA81FF1FF081FF1FE881FF1F00002041F0B583B086460F4616461D460B4C01232370002237
:4019000000920192184671463A46FFF70BF8207831462A46FEF7E0FF20780221FEF7CAFF207803B0F0BD00BF2781FF1FF0B583B086460F4616461D460A4C00232370009354
:401940000193184671463A46FEF7ECFF207831462A46FEF7C1FF20780221FEF7ABFF207803B0F0BD2881FF1F014B1B689864704708ED00E04001C0B2014B1870704700BFBD
:4019800002E400E0044A137803F0FD03400000F00200184310707047C0510040014B1B685864704708ED00E04001C0B2014B1870704700BF01E400E00222014B1A60704706
:4019C00000E100E00222014B1A60704780E100E010B50446FFF7F6FF2046FFF7DFFF0720FFF7E2FFFFF7E8FF10BD00BF014B1B681864704708ED00E04001C0B2014B18704B
:401A0000704700BF00E400E00122014B1A60704700E100E00122014B1A60704780E100E010B50446FFF7F6FF2046FFF7DFFF0720FFF7E2FFFFF7E8FF10BD00BF2DE9F04F3A
:401A40008BB01F4680468946164600F071F9DFF8D8A204469AF900300D46013304D03046394600F085FF20B9204629460BB0BDE8F08F4046494600F07BFF834660BB3046F3
:401A800039460022002301F0D7FC0028ECD09AF900309E4C01229E4900208DE814005A1CCDF820B0CDE90289CDE90467CDE906010DD0022B0BD0684600F086FF002800F010
:401AC0009380089B1BB101F067FF089B0360DDE906010BB0BDE8F08F404649460022002301F0AAFCF8B1304639460022002301F0A3FC834600284ED084489AF90030012137
:401B0000002200240025CDE90289CDE90467CDE90645019000910892002BCCD07C4B0022CDE90623D3E72046294600F01BFF834600285ED0204629460022002301F07CFC51
:401B4000002891D04046494600F00CFF00288BD03046394600F006FF002885D09AF900306A480421002200240025022BCDE90289CDE90467CDE9064501900091089200F0A1
:401B80008880684600F020FF002800F08280089B002B9CD097E73046394600F0E3FE00283FF462AF304639460022002301F04EFC00283FF459AF55499AF800300122CDF83C
:401BC00020B0CDE90289CDE9046701910092002B3CD050490020022BCDE9060130D101F0DBFE21230360D2E701F0D6FE2123036067E74046494600F0B5FE00289AD0304610
:401C0000394600F0AFFE002894D02046294600F0AFFE00BB3D4A9AF8004001230890CDE90289CDE90467019200937CB10020002102460B4601F0C2FA022CCDE90601CED0F5
:401C4000684600F0C1FE0028A1D1C8E700220023CDE90623F4E72D499AF900300322CDF820B0CDE90289CDE9046701910092ABB9294D4FF060444046494600220023CDE979
:401C8000064501F0E3FB50BB9AF90030022B7FF478AF01F081FE2223036078E71F4D00244046494600220023CDE9064501F0CEFB0028E9D000221A4B3046394601F054F9BE
:401CC00004460D4600F088FE22462B4601F0B4FB0028D9D10F4B0022CDE90623D4E700220F4B3046394601F03FF904460D4600F073FE22462B4601F09FFB0028C4D1094B63
:401D00004FF06042CDE90623BEE700BF503A00000000F03F0000F0FFFFFFEF470000F07F0000E03FFFFFEFC72981FF1F000000002DE9F04F144623F00047024657EA040003
:401D40000E468FB01D469C46214634D06E4B26F0004A9A459346B14626DC24D09F4223DC694B9F4200F08F80B9F1000FC0F28F804FF0000879BB644B9F4200F0A580634BA6
:401D80009F4267D0BCF1804F00F0E283604B9C4521D1B9F1000F1EDB104631460FB0BDE8F04F00F015BD62B10AF1404000F5801050EA0B0007D10346544918460FB0BDE800
:401DC000F08F5745CCDD53480FB0BDE8F04F00F0FDBD4FF0000810463146CDF808C0009200F0BCFD009ADDF808C0BBF1000F20D04FEAD97909F1FF3958EA09037AD0464B93
:401E00009F4240F38F8003F104739F4240F31084424B9A4540F39283BCF1000F40F3928337A1D1E900010B46024601F09DF80346C3E7BAF1000F04D0344B29F0404E9E4578
:401E4000D6D1BCF1000FC0F2B683B9F1000F08DB0346B2E7BCF1000FC0F2528413463146ABE70AF1404A0AF5801A58EA0A0340F05E8402460B4600F0C3FE0B46024601F09D
:401E80009DF9034699E700293FF46EAF8CE7244B9F422CDCA3F154739F427FF769AF40F213403B15834240F34B84C3F58663033321FA03F000FA03F38B427FF459AF00F00C
:401EC0000100C0F1020855E70AF1404303F5801353EA0B0300F03983104B9A4540F36483BCF1000FC0F22E832346294665E74FF002083FE7104631463346BCE7AFF30080D9
:401F00009C7500883CE4377E0000F07F0000F03F0000E03F883A00000000E041FFFFEF3FFFFF3F43BAF5801F4FF0000205DACA4B01F01AF88A466FF034024FEA2A53C74E31
:401F4000CAF3130AA3F2FF334AF07F571344B2450C9347F4401740F3D083C14B9A4540F307840026B4460C9BA7F5801701330C933946BC4B4FEACC0C6344D3E900AB5246F8
:401F80005B46CDF834C0CDE9060100F039FE52465B46CDE90801DDE9060100F033FE02460B460020B04901F009F902460B46DDE90801CDE90A2300F0D7FF02460B46CDE9F8
:401FC0000223CDE904237B1043F0005303F5002399190020002306460F460293DDE902231046194632463B46CDE9000100F0BCFF02460B46DDE9080100F002FE5246CDE9E7
:4020000008015B463046394600F0FAFD02460B46DDE9060100F0F4FD02460B46DDE9000100F0A2FF02460B46DDE9080100F0E8FDDDE90A2300F098FFDDE90423CDE9060181
:402040001046194600F090FF02460B4606460F4600F08AFF6EA3D3E9002382468B463046394600F081FF6CA3D3E9002300F0CAFD32463B4600F078FF69A3D3E9002300F0AB
:40208000C1FD32463B4600F06FFF67A3D3E9002300F0B8FD32463B4600F066FF64A3D3E9002300F0AFFD32463B4600F05DFF62A3D3E9002300F0A6FD02460B465046594623
:4020C00000F052FFDDE9042306460F46DDE9000100F098FDDDE9062300F046FF32463B4600F090FDDDE9006782468B4632463B463046394600F038FF00225C4BCDE90801C8
:4021000000F080FD52465B4600F07CFD02980F460646DDE9000132463B4600F025FF32463B46CDE90001DDE9060100F01DFF0022CDE906014D4B3046394600F061FDDDE978
:40214000082300F05DFD02460B465046594600F057FDDDE9042300F007FF02460B46DDE9060100F04FFD82468B46DDE9000152465B4600F047FD32A3D3E9002302980F46E3
:40218000064600F0F1FE30A3D3E90023CDE904013046394600F0E8FEDDE90023CDE906013046394600F02CFD02460B465046594600F026FD26A3D3E9002300F0D5FE024674
:4021C0000B46DDE9060100F01DFDDDF834C0284BCDF818C06344D3E9002300F013FDCDE900010C9800F05AFE06460F46DDE90401204BDDF818C09C44DDE90023DCE900ABF8
:4022000000F000FD52465B4636E000BFAFF30080EF4E454A287ECA3F65DBC9934A86CD3F01411DA96074D13F4D268F515555D53FFFAB6FDBB66DDB3F033333333333E33F3C
:40224000000000E009C7EE3FF5015B14E02F3EBEFD033ADC09C7EE3F000040438E98030079B60B00783A00000000F03F00000840683A0000583A0000CDE906AB00F0C2FCA6
:4022800032463B4600F0BEFC029832463B4682468B4600F0B5FCDDE9062300F0B1FCDDE9042300F0ADFC02460B46DDE9000100F0A7FCCDE9020108F1FF3858EA09030CBFA7
:4022C000D54BD64B0022CDE904230023CDE900450093DDE90067204632463B46294600F08FFC52465B4600F03FFEDDE90223804689462046294600F037FE02460B46404678
:40230000494600F07FFC04460D465246304639465B46CDE9024500F027FE06460F4620463B462946324600F06DFCBD4B824699428946884640F3138101F13F4303F5E003A0
:40234000034340F0E581A0A3D3E90023DDE9020100F058FC324604460D463B465046494600F04EFC02460B462046294601F08CF8002840F0CD814C462015A0F2FE304FF40A
:40238000801101414144C1F30A50A64CA0F2FF35C1F3130BC0F5826003302C414BF4801B21EA040300224BFA00FB3946304600F027FC06460F46DDE902018BEAE87B0BEB68
:4023C000D87B32463B464FEA0B5A00F01BFC80A3D3E90023002420460D4600F0C5FD3246804689463B462046294600F009FC02460B46DDE9020100F003FC77A3D3E90023B9
:4024000000F0B2FD76A3D3E9002306460F462046294600F0A9FD02460B463046394600F0F1FB06460F4632463B464046494600F0E9FB42464B4604460D4600F0E1FB024642
:402440000B463046394600F0DBFB2246804689462B462046294600F087FD63A3D3E9002306460F4600F080FD61A3D3E9002300F0C7FB32463B4600F077FD5FA3D3E90023D3
:4024800000F0C0FB32463B4600F06EFD5CA3D3E9002300F0B5FB32463B4600F065FD5AA3D3E9002300F0AEFB32463B4600F05CFD02460B462046294600F0A2FB06460F4601
:4024C00032463B462046294600F04EFD0022CDE900014FF080433046394600F091FB02460B46DDE9000100F069FE424606460F464B462046294600F037FD42464B4600F014
:4025000081FB02460B463046394600F079FB22462B4600F075FB02460B4600203F4900F06FFB8A44BAF5801F0246C0F227815346DDE9040100F018FD03463EE4BCF1000F0B
:40254000FFF66EAC0023194637E40B46334934E433461046314600F007FD03462DE4324B21F000449C4240F3FA80304B0B4403430CD132463B4600F043FB02460B46DDE966
:40258000020100F06DFF00283FF4F6AE20A3D3E90023DDE9040100F0E7FC1DA3D3E9002300F0E2FC034608E4BCF1000FCADA234605F1004101E402460B460020174900F0ED
:4025C000FDFD42E4AFF30080FE822B654715973C00000000432EE63FEF39FAFE422EE63F396CA80C615C20BED0A4BE726937663EF16BD2C541BDBB3E2CDE25AF6A56113F5B
:4026000093BDBE166CC1663F3E5555555555C53F59F3F8C21F6EA5010000F0BF0000F03FFFFF8F40FFFF0F00FFCB904000346F3F634B9A4582DD634B9A453FF7EDAB0022E3
:40264000604B00F0DDFA54A3D3E9002306460F4600F08AFC52A3D3E90023CDE900013046394600F081FC3246CDE902013B463046394600F079FC002282468B463046394652
:40268000514B00F071FC02460B4647A1D1E9000100F0B6FA32463B4600F066FC02460B4600204A4900F0ACFA02460B465046594600F05AFC3EA3D3E9002300F055FC0246BB
:4026C0000B46DDE9020100F09BFA06460F46DDE9000132463B4600F095FADDE90023002082468B4600F08CFA02460B463046394600F086FACDE90201DDE50026B44637E48F
:40270000334600202F4900F059FD0346FFF755BB29A3D3E90023DDE9040100F025FC26A3D3E9002300F020FC0346FFF746BBB8F1010F03467FF441AB01F10041FFF73DBBF6
:4027400000297FF446ABC3F58263033347FA03F000FA03F3BB4217D08846FFF710BB1B4B9C423FF709AEDDE90023924693462EE64FF480264FF0010CFFF7FABB5A4600F013
:40278000BBF902460B46D3E600F00100C0F10208FFF7F5BAAFF30080000000604715F73F44DF5DF80BAE543E555555555555D53FFE822B654715F73F9C7500883CE4377EC9
:4027C000FEFFEF3F0000F03F0000D03F0000E03F2DE9F041604E0C46B6460E40764505460B4600F098800029024676DD5FEA215E00F08180AEF2FF3EC3F313031EF0010F1D
:4028000043F480135ED100273C46D10F01EB43034FEA6E0E520016204FF4001165189D424FEAD2764FEA420202DC5B1B6C180F44013806EB43034FEA5101EFD18446202603
:402840004FF000410AE0A34220D0D50F013E4FEA510105EB43034FEA420220D09C420CEB0105F0DA002D05EB010C09DBA0461B1B954288BF03F1FF334446521B0844E4E7A7
:40288000BCF1000FF2DB04F10108F0E7954217D8002D05EB010C48DB98460023ECE7134315D140087B1003F17F5303F50013FA0703EB0E57394648BF40F00040BDE8F08193
:4028C0001C46C2E7D10F01EB430352009BE7411C31D000F001031844E3E721F000460643ECD079BB8E46D30AAEF1150E5205002BF9D0DC0222D400215B00D80201F1010103
:40290000FAD5C1F10100C1F1200422FA04F4234386448A406EE702460B4600F025FB2A46234600F06FF9BDE8F081BCF1000FAADAA0460023A0E701373046B3E7202401206F
:402940000021E2E702460B4600F05AF902460B4600F034FCB2E700BF0000F07F21F00041704700BF41F0004101F58010C00F704710B431F0004408D0114BA1F580129A426A
:4029800008D804205DF8044B704718B902205DF8044B704701F1FF41094B01F5E0019942EFD9B4F5801F01D20320EBE7054B9C4201D00020E6E7B0FA80F04009E2E700BF83
:4029C000FFFFDF7F0000F07F0020704700200149704700BF0000F87FF0B5C1F30A5EAEF2FF35132D83B002460B460C464FEAD17607462EDC002D48DB3C49294101EA0300E7
:402A000010432BD049080B4053EA02070CD04FF48023132D24EA010143FA05F444EA01040CBF4FF0004700273149234601EBC606D6E900453A462046294600F0E3F8CDE9FE
:402A40000001DDE9000122462B4600F0D9F803B0F0BD332D06DDB5F5806F43D01046194603B0F0BDAEF2134E4FF0FF3121FA0EF10142F3D049080142D6D04FF0804320EABA
:402A8000010143FA0EF70F43CEE721F000410143E4D0C3F3130141EA000CCCF1000141EA0C0C13495C0C4FEA1C3C0CF4002C640401EBC6014CEA0403D1E9004520462946D2
:402AC00000F0A0F8CDE90001DDE9000122462B4600F096F8024621F0004141EAC67310461946BDE700F08EF8BAE700BFFFFF0F00903A000000000000F8B5C1F30A5604466A
:402B00000D460B46174616BB21F00043034332D00022314B00F028FA304A044697420D460B4637DB40F2FE72C1F30A56363E3E44964215DD24A1D1E9000122462B4600F065
:402B400053F821A3D3E9002300F00EFAF8BD40F2FF72964224D040F2FE723E449642E9DC002E09DD23F0FF4323F4E00343EA065520462946F8BDF8BD16F1350F15DA4CF2E8
:402B800050339F42D6DC12A1D1E9000122462B4600F02AF80EA3D3E9002300F0E5F9F8BD02460B4600F02EF8F8BD23F0FF4323F4E003363643EA0655204629460022084BA2
:402BC00000F0D2F9F8BD00BF9C7500883CE4377E59F3F8C21F6EA50100005043B03CFFFF0000903CAFF3008003F0004321F0004243EA0201704700BF81F0004102E000BF12
:402C000083F0004330B54FEA41044FEA430594EA050F08BF90EA020F1FBF54EA000C55EA020C7FEA645C7FEA655C00F0E2804FEA5454D4EB5555B8BF6D420CDD2C4480EAC9
:402C4000020281EA030382EA000083EA010180EA020281EA0303362D88BF30BD11F0004F4FEA01314FF4801C4CEA113102D0404261EB410113F0004F4FEA03334CEA13335D
:402C800002D0524263EB430394EA050F00F0A780A4F10104D5F1200E0DDB02FA0EFC22FA05F2801841F1000103FA0EF2801843FA05F359410EE0A5F120050EF1200E012AB2
:402CC00003FA0EFC28BF4CF0020C43FA05F3C01851EBE37101F0004507D54FF0000EDCF1000C7EEB00006EEB0101B1F5801F1BD3B1F5001F0CD349085FEA30004FEA3C0CE1
:402D000004F101044FEA445212F5800F80F09A80BCF1004F08BF5FEA500C50F1000041EB045141EA050130BD5FEA4C0C404141EB010111F4801FA4F10104E9D191F0000F8A
:402D400004BF01460020B1FA81F308BF2033A3F10B03B3F120020CDA0C3208DD02F1140CC2F10C0201FA0CF021FA02F10CE002F11402D8BFC2F1200C01FA02F120FA0CFC2B
:402D8000DCBF41EA0C019040E41AA2BF01EB0451294330BD6FEA04041F3C1CDA0C340EDC04F11404C4F1200220FA04F001FA02F340EA030021FA04F345EA030130BDC4F1A5
:402DC0000C04C4F1200220FA02F001FA04F340EA0300294630BD21FA04F0294630BD94F0000F83F4801306BF81F480110134013D4EE77FEA645C18BF7FEA655C29D094EA49
:402E0000050F08BF90EA020F05D054EA000C04BF1946104630BD91EA030F1EBF0021002030BD5FEA545C05D14000494128BF41F0004130BD14F580043CBF01F5801130BD35
:402E400001F0004545F0FE4141F470014FF0000030BD7FEA645C1ABF194610467FEA655C1CBF0B46024650EA013406BF52EA033591EA030F41F4002130BD00BF90F0000FBB
:402E800004BF0021704730B54FF4806404F132044FF000054FF0000150E700BF90F0000F04BF0021704730B54FF4806404F1320410F0004548BF40424FF000013EE700BF73
:402EC00042004FEAE2014FEA31014FEA02701FBF12F07F4393F07F4F81F06051704792F0000F14BF93F07F4F704730B54FF4607401F0004521F0004120E700BF50EA01029F
:402F000008BF704730B54FF000050AE050EA010208BF704730B511F0004502D5404261EB41014FF4806404F132045FEA915C3FF4DCAE4FF003025FEADC0C18BF03325FEA24
:402F4000DC0C18BF033202EBDC02C2F1200300FA03FC20FA02F001FA03FE40EA0E0021FA02F11444C1E600BF70B54FF0FF0C4CF4E06C1CEA11541DBF1CEA135594EA0C0F6E
:402F800095EA0C0F00F0DEF82C4481EA030621EA4C5123EA4C5350EA013518BF52EA033541F4801143F4801338D0A0FB02CE4FF00005E1FB02E506F00042E0FB03E54FF07A
:402FC0000006E1FB03569CF0000F18BF4EF0010EA4F1FF04B6F5007F64F5407404D25FEA4E0E6D4146EB060642EAC62141EA55514FEAC52040EA5E504FEACE2EB4F1FD0CE5
:4030000088BFBCF5E06F1ED8BEF1004F08BF5FEA500E50F1000041EB045170BD06F0004646EA010140EA020081EA0301B4EB5C04C2BFD4EB0C0541EA045170BD41F480112C
:403040004FF0000E013C00F3AB8014F1360FDEBF002001F0004170BDC4F10004203C35DA0C341BDC04F11404C4F1200500FA05F320FA04F001FA05F240EA020001F00042AF
:4030800021F0004110EBD37021FA04F642EB06015EEA430E08BF20EAD37070BDC4F10C04C4F1200500FA04F320FA05F001FA04F240EA020001F0004110EBD37041F10001FE
:4030C0005EEA430E08BF20EAD37070BDC4F1200500FA05F24EEA020E20FA04F301FA05F243EA020321FA04F001F0004121FA04F220EA020000EBD3705EEA430E08BF20EAB8
:40310000D37070BD94F0000F0FD101F00046400041EB010111F4801F08BF013CF7D041EA060195F0000F18BF704703F00046520043EB030313F4801F08BF013DF7D043EAE6
:403140000603704794EA0C0F0CEA135518BF95EA0C0F0CD050EA410618BF52EA4306D1D181EA030101F000414FF0000070BD50EA410606BF1046194652EA430619D094EAD8
:403180000C0F02D150EA013613D195EA0C0F05D152EA03361CBF104619460AD181EA030101F0004141F0FE4141F470014FF0000070BD41F0FE4141F4780170BD70B54FF0AA
:4031C000FF0C4CF4E06C1CEA11541DBF1CEA135594EA0C0F95EA0C0F00F0A7F8A4EB050481EA030E52EA03354FEA013100F088804FEA03334FF0805545EA131343EA12635C
:403200004FEA022245EA111545EA10654FEA00260EF000419D4208BF964244F1FD0404F5407402D25B084FEA3202B61A65EB03055B084FEA32024FF480104FF4002CB6EBBA
:40324000020E75EB030E22BFB61A754640EA0C005B084FEA3202B6EB020E75EB030E22BFB61A754640EA5C005B084FEA3202B6EB020E75EB030E22BFB61A754640EA9C0023
:403280005B084FEA3202B6EB020E75EB030E22BFB61A754640EADC0055EA060E18D04FEA051545EA16754FEA06164FEAC30343EA52734FEAC2025FEA1C1CC0D111F4801F69
:4032C0000BD141EA00014FF000004FF0004CB6E711F4801F04BF01430020B4F1FD0C88BFBCF5E06F3FF6AFAEB5EB030C04BFB6EB020C5FEA500C50F1000041EB045170BD58
:403300000EF0004E4EEA113114EB5C04C2BFD4EB0C0541EA045170BD41F480114FF0000E013C90E645EA060E8DE60CEA135594EA0C0F08BF95EA0C0F3FF43BAF94EA0C0FE0
:403340000AD150EA01347FF434AF95EA0C0F7FF425AF104619462CE795EA0C0F06D152EA03353FF4FDAE1046194622E750EA410618BF52EA43067FF4C5AE50EA41047FF4CE
:403380000DAF52EA43057FF4EBAE12E74FF0FF3C06E000BF4FF0010C02E000BF4FF0010C4DF804CD4FEA410C7FEA6C5C4FEA430C18BF7FEA6C5C1BD001B050EA410C0CBF25
:4033C00052EA430C91EA030F02BF90EA020F0020704710F1000F91EA030F58BF994208BF90422CBFD8176FEAE37040F0010070474FEA410C7FEA6C5C02D150EA013C07D123
:403400004FEA430C7FEA6C5CD6D152EA033CD3D05DF8040B704700BF8446104662468C461946634600E000BF01B5FFF7B7FF002848BF10F1000F01BD4DF808EDFFF7F4FF71
:403440000CBF012000205DF808FB00BF4DF808EDFFF7EAFF34BF012000205DF808FB00BF4DF808EDFFF7E0FF94BF012000205DF808FB00BF4DF808EDFFF7CEFF94BF01209A
:4034800000205DF808FB00BF4DF808EDFFF7C4FF34BF012000205DF808FB00BF4A0011D212F5001211D20DD56FF47873B3EB62520ED44FEAC12343F0004343EA505323FA8A
:4034C00002F070474FF00000704750EA013002D14FF0FF3070474FF00000704780F0004002E000BF81F0004142001FBF5FEA410392EA030F7FEA226C7FEA236C6AD04FEA34
:403500001262D2EB1363C1BFD218414048404140B8BF5B42192B88BF704710F0004F40F4000020F07F4018BF404211F0004F41F4000121F07F4118BF494292EA030F3FD099
:40354000A2F1010241FA03FC10EB0C00C3F1200301FA03F100F0004302D5494260EB4000B0F5000F13D3B0F1807F06D340084FEA310102F10102FE2A51D2B1F1004F40EB6B
:40358000C25008BF20F0010040EA03007047490040EB000010F4000FA2F10102EDD1B0FA80FCACF1080CB2EB0C0200FA0CF0AABF00EBC25052421843BCBFD04018437047F8
:4035C00092F0000F81F4000106BF80F400000132013BB5E74FEA41037FEA226C18BF7FEA236C21D092EA030F04D092F0000F08BF0846704790EA010F1CBF0020704712F04F
:403600007F4F04D1400028BF40F00040704712F100723CBF00F50000704700F0004343F0FE4040F4000070477FEA226216BF08467FEA23630146420206BF5FEA412390EA78
:40364000010F40F4800070474FF0000304E000BF10F0004348BF40425FEA000C08BF704743F0964301464FF000001CE050EA010208BF70474FF000030AE000BF50EA0102DA
:4036800008BF704711F0004302D5404261EB41015FEA010C02BF84460146002043F0B64308BFA3F18053A3F50003BCFA8CF2083AA3EBC25310DB01FA02FC634400FA02FC88
:4036C000C2F12002BCF1004F20FA02F243EB020008BF20F00100704702F1200201FA02FCC2F1200250EA4C0021FA02F243EB020008BF20EADC7070474FF0FF0C1CEAD0523E
:403700001EBF1CEAD15392EA0C0F93EA0C0F6FD01A4480EA010C400218BF5FEA41211ED04FF0006343EA501043EA5111A0FB01310CF00040B1F5000F3EBF490041EAD3715C
:403740005B0040EA010062F17F02FD2A1DD8B3F1004F40EBC25008BF20F00100704790F0000F0CF0004C08BF49024CEA502040EA51207F3AC2BFD2F1FF0340EAC2507047F8
:4037800040F400004FF00003013A5DDC12F1190FDCBF00F000407047C2F10002410021FA02F1C2F1200200FA02FC5FEA310040F1000053EA4C0308BF20EADC70704792F014
:4037C000000F00F0004C02BF400010F4000F013AF9D040EA0C0093F0000F01F0004C02BF490011F4000F013BF9D041EA0C018FE70CEAD15392EA0C0F18BF93EA0C0F0AD096
:4038000030F0004C18BF31F0004CD8D180EA010000F00040704790F0000F17BF90F0004F084691F0000F91F0004F14D092EA0C0F01D142020FD193EA0C0F03D14B0218BFFA
:40384000084608D180EA010000F0004040F0FE4040F40000704740F0FE4040F4400070474FF0FF0C1CEAD0521EBF1CEAD15392EA0C0F93EA0C0F69D0A2EB030280EA010CAA
:4038800049024FEA402037D04FF0805343EA111143EA10130CF000408B4238BF5B0042F17D024FF4000C8B4224BF5B1A40EA0C00B3EB510F24BFA3EB510340EA5C00B3EBCE
:4038C000910F24BFA3EB910340EA9C00B3EBD10F24BFA3EBD10340EADC001B0118BF5FEA1C1CE0D1FD2A3FF650AF8B4240EBC25008BF20F0010070470CF0004C4CEA50208D
:403900007F32C2BFD2F1FF0340EAC250704740F400004FF00003013A37E792F0000F00F0004C02BF400010F4000F013AF9D040EA0C0093F0000F01F0004C02BF490011F4D5
:40394000000F013BF9D041EA0C0195E70CEAD15392EA0C0F08D142027FF47DAF93EA0C0F7FF470AF084676E793EA0C0F04D14B023FF44CAF08466EE730F0004C18BF31F04E
:40398000004CCAD130F000427FF45CAF31F000437FF43CAF5FE700BF014B1868704700BF8C81FF1F0E4B70B51E460E4C0025E41AA410A54204D056F8253098470135F8E7A7
:4039C00000F070F8084B094C1E46E41AA4100025A54204D056F8253098470135F8E770BDB03A0000B03A0000B03A0000B83A000010B5431E0A44914204D011F8014B03F8F2
:403A0000014FF8E710BD03460244934202D003F8011BFAE770470000000000000000000040510040300000000140001000140140000800400140000A004C0140000210507C
:403A40000140100000500140500B004810000000706F77000000000000000000000000000000004003B8E23F000000000000000006D0CF43EBFD4C3E000000000000F03FB6
:403A8000000000000000F83F0000000000000000000000000000304300000000000030C343000000F8B500BFF8BC08BC9E4670474D00000021030000F8B500BFF8BC08BC52
:403AC0009E46704729000000D83A00000881FF1F8800000068000000000000007F8000000300000000007C92F82401004B000000C068780401FFFFFFFF010000000000003F
:403B000000000000000000000000000000000000000000000000000000000000A03A00000000000000000000000000000000000000000000000000000000000000000000AB
:403B4000000000000000000000000000000000000000000000000000000000002C81FF1F00000000000000000000000000000000000000000000000000000000000000007A
:403B80000000000000000000000000000000000000000000000000000000000000000000000000000000000000000000000000000000000000000000000000000000000005
:403BC00000000000000000000000000000000000000000000000000000000000000000000000000000000000000000000000000000000000000000000000000000000000C5
:403C00000000000000000000000000000000000000000000000000000000000000000000000000000000000000000000000000000000000000000000000000000000000084
:403C40000000000000000000000000000000000000000000000000000000000000000000000000000000000000000000000000000000000000000000000000000000000044
:020000040003F7
:0200000480007A
:40000000014500400B520040015B0040026400400165004048000140320101404C0201404F0301401205014037060140460701401B080140470901401C0A0140440B014046
:400040002C0C01402F0D0140020F0140321401404B15014050160140471701402E1801403A190140081A0140371B01400B400140124101400F4201400D43014009440140E8
:40008000114501401B46014011470140164801400C490140154C0140074D014007500140035101407E0208300960109011A01818191060106104781879147C402F84830F17
:4000C0008A03840F060114012E0136013E4040534102420149FF4AFF4BFF4F015018580459045A045C335D095F016040624064406540668068806A806C806E809102940183
:400100009705990E9A039E08A204A30AA604A808AF05B202B303B401B60CB70CBE10C053C102C201C9FFCAFFCBFFCD83CE03CF01D018D280D804D904DA04DB04DC49DD9936
:40014000DF01E040E240E440E540E680E880EA80EC80EE800222040406200A2C0B420D800E200F0410A21110168017181A011C041DA01E201F80254027112E802F8230A026
:40018000314032063608371939113B42400441044201430445204602470448024C02740283028740C005C2EFC47FCA90CCEFCE0DD07ED218E004E6021E0122022C012E028F
:4001C00034033E1040524103420149FF4AFF4BFF4D834E034F015018580459045A045C335D095F016040624064406540668068806A806C806E8087018A0193019E04A60233
:40020000AA04B001B101B202B301B404BA02BC02BE10BF01C056C102C201C5ECC702C813C9FFCAFFCBFFCD83CE03CF01D018D403D804D904DA04DB04DC99DD99DF05E04024
:40024000E240E440E540E680E880EA80EC80EE800208045009400C850E241120122014181580170218881A201B021F10220823802C3030023404360239083C503D113E040C
:400280003F404004411042034626480A49054C02500851045204582059055B806008612079208020820285408614880189218A428E20900492019340951996249A209D402C
:4002C0009E02A002A140A420A62AA702B304C0C2C2F1C4F6CA40CCC1CEF2D07CD21CD60FDE04E010E202E608EA01EC20EE0284208501861090809204932095109A409F02BE
:40030000A140A4A0A510A940B404E008E206E608EE040102070109040C020E010F04100112021B021D013203330337043E043F405608580459045B045C835D905F2183013D
:400340008604870489088A088D028E1290129504960198079B019C309D04A108A201A620AA08AB08AF02B007B230B307B608B70ABE40D280D804D904DB0BDC55DD90DF0135
:4003800000040140030A0480065808400A280B810C200D0211091320151016A0182019801A801B081C2021082204230125042712284029202B023108325035203640371056
:4003C000382439013B803DA03F095C806401734078017F1080108112824085808684908091109204932095019A50A140A480A510AF02B110C0F7C25FC47ECA0DCC3ECEFF29
:40040000D610D810DE41E014E281E4010601100136013E40580459045C335F0188028F019E019F01AC02B001B101B402B820BE10BF01D203D302D804D904DB04DC33DD303A
:40044000DF0100800102030405810710080409800A040BA00C080E040F40122013A81690172019131B021F80210129202A802B102F12300832083342342035203608372842
:4004800039083A103B603C203E846101620269806A806B048358881089858B448C808F80920493209580978098209A809B809D119F04A050A180A208A310A602B021C0BB70
:4004C000C27FC477CA5ECC6BCE7EE010E281EA800002060108020B020C021002130414022A022C022F013104320233013401370256025736580459045B0C5C335D305F0195
:40050000D804D904DC33DF01008A012005210BA00C400D040E08120E14041680181019201A041B1020A2210C2240280429412B102C042E04304031083241360E38203A84B2
:400540003CA259405A405B04611068046A426B307090718073087980844086808C108F809320964698049F38A208A4D5A602B008B280B304C05FC2ECC453CA6FCCCBCEBE5F
:40058000D602D804DE08E008E204E608E810EE041A013401580459045C335F018201832084208610870188408A808B028D018E049080910592409511960898109A209B10D3
:4005C0009C049F08A002A109A401A701A808A903AE02AF04B33EB501B6FFB908BE40BF04D804D904DC30DF0100AA012002810524060108640A460B280C141080125213A89D
:400600001428178018021F10220C2304280829042A412D202F103054320233103504360A38023A103B883C823E04860688108A048B409720C0EFC26FC4EFCA6FCCCFCEDFF2
:40064000E6A0EA01EE028710E00440124106420349FF4AFF4BFF4F0150185403580459045A0B5B0B5C335D995F056040624064406540668068806A806C806E80C012C103B6
:40068000C206C9FFCAFFCBFFCD83CE03CF01D018D804D904DA0BDC33DD09DF01E040E240E440E540E680E880EA80EC80EE800020024003200508061807800A040E040F08C0
:4006C000121013821408166029082A402B062E202F2232023320350837823A283E044020415443504508475048044F10582059055A8078017A107B807F80820883028410BE
:4007000086208A508C088E028FA091A892849310980199059A509D089E289F92A004A108A210A722B708C07EC242C47DCA7ECCD5CE46D07ED224D60FDE83E208E402E601EF
:40074000E830EE4010021A033001320234023E1440524103420649FF4AFF4BFF4D834E034F0150185608580459045A085B045C385D995F216040624064406540668068800A
:400780006A806C806E80820286088B048E048F0690049102960397039808B001B101B302B40EB504B704BA02BC02BF44C052C103C206C5ECC620C80BC9FFCAFFCBFFCD8335
:4007C000CE03CF01D018D804D90BDA0BDC98DD09DF21E040E240E440E540E680E880EA80EC80EE80000401430A680B800E800F08180419021C081D081EE821042251231099
:400800002E202F22320133083508378239A03B403E0441184508471049054B504F5051105C806401670278097A047C087F1181028D408F24920C93609404954196209780AD
:4008400098809A509E289F20A640A704A880AC20B090B310B702C00DC25ECA70CCD3CE4CD066D23CD610D810DE57E040E204E414EA1202020504070811081201130415011A
:40088000180428012F033003320433013502370C39023E043F4156085804590F5B045C395D905F018A018F03910395039B039D03A502A701A903AC01B001B301B502BE0140
:4008C000D401D804D904DB0CDC33DD30DF01010202100389068008200B800C200E401226134017201B021E401F04210823042462272429202A042B102E4030043220338158
:40090000360237043B803F0859805C80668079807E4083048C608E0291809280974898A499229A10A220A318AE04C01FC25AC447CA16CCCFCE48D618D810DE88E204E4106E
:40094000EC80580459045C335F01D804D904DC33DF0101020210030105020604070108040C26102212241420161028242A802C202E80322234243582360239103B803D10AD
:400980003F2082208404880289808A808B418C208E049780982499029A049F01A220A310A908AB02AF04B411B580C0DDC274C427CA5ECCF5CE2CE240E4A2E610E827EE405F
:4009C00011021680300233803402378038223E80C430CCF0CE7007010B010F208F1094229F01A101A202A402A780AA02AB80AC02B301C080C260EA80EE405220801087046B
:400A00009420A101A202A402A780A801AB01D420E220E610E880EE2086408B808D019308A101A202A402A580A620A780AD80E210EC4028082A80360477107E108310CA0867
:400A4000CC01DE051280232036085B0261026712962097209808A604AA80AF10C408C802CC01D603D803020C3408441050048240868087108C048F209620973298089B2059
:400A80009D10A280A60CA910B102B702C002CC01D001D404E008E608E808EC0403100B200E40370882048A018F01966097229A049C109D10A604C008C20CCC01E00602801B
:400AC00004082101242025805202564082208E82930894209A40A202A402A580A810B620C030C8E0D4C0E220E8201A0256206708860193089A20B101B406C640D440D8802C
:400B0000E4401D103702620166847E0183108E10920296209B109C109D10A604B308C601CC01D601D803DE04E002EC0187029F02AA05AE80B010B604E806100811011214C5
:400B40001A081B011C081D0100BF0102100A000038011400000000001801280108000800686800000000930000161600140000004000031F1C001C20E000000004444000B5
:400B80004030B40000D0D000D0202900001818001800C30017001801000100000000000000000000000000000000000000000000000000000000000000000000000000001C
:400BC00000000000000000000000000000000000000000000000000000000000000000000000000000000000000000000000000000000000000000000000000000000000F5
:400C000000000000000000000000000000000000000000000000000000000000000000000000000000000000000000000000000000000000000000000000000000000000B4
:400C40000000000000000000000000000000000000000000000000000000000000000000000000000000000000000000000000000000000000000000000000000000000074
:400C80000000000000000000000000000000000000000000000000000000000000000000000000000000000000000000000000000000000000000000000000000000000034
:0200000490006A
:0400000000004005B7
:0200000490105A
:04000000BC90ACAF55
:0200000490303A
:020000007F0A75
:0200000490402A
:4000000000000000000000000000000000000000000000000000000000000000000000000000000000000000000000000000000000000000000000000000000000000000C0
:400040000000000000000000000000000000000000000000000000000000000000000000000000000000000000000000000000000000000000000000000000000000000080
:400080000000000000000000000000000000000000000000000000000000000000000000000000000000000000000000000000000000000000000000000000000000000040
:4000C0000000000000000000000000000000000000000000000000000000000000000000000000000000000000000000000000000000000000000000000000000000000000
:0200000490501A
:0C00000000012E16106900012E308F73D5
:00000001FF