:400000000080002011000000A1010000A101000008B5044B1A6803F53F5302331A6000F0C1F800BFFA46004010B5054C237833B9044B13B10448AFF300800123237010BD7A
:400040008881FF1F00000000A0310000084B10B51BB108480849AFF300800848036803B910BD074B002BFBD0BDE81040184700BF00000000A03100008C81FF1F0881FF1F9F
:40008000000000000000000010B562B600F028FF00F0A2FE01F00CF8FF2000F067FE00F0E5FFFF2000F0ACFF00F0B8FC00F0CAFC48F6A04000F0C6FE01F030F801F006F891
:4000C00001F062F801F038F800F070FF00F016FF00F0C0FC00F0F4FC2D4902F0D1FE02F0ABFA02460B4628A1D1E9000101F064F80022284B02F0F4FA02F08CFD04462648C4
:4001000090FBF4F000F09EFE40F66E739C420EDD082000F073FE082000F0BAFF2346002C01DA04F11F035B111C4A136019E0B4F5F77F0DDB042000F061FE042000F0A8FF90
:400140002346002C00DAE31C9B10144A136008E0002000F053FE002000F09AFF64000F4B1C600E4B1868002800DA0330C0F3870000F0FCFD094B1868002800DA0330C0F37C
:40018000870000F03DFFA3E799C8C0928FF3F03F0000404100806B40001BB700B481FF1FFEE700BF08B5104E104D16E029686B68AC68002204E051F8040B43F8040B043265
:4001C000A242F8D1E868002203E0002143F8041B04328242F9D11035013E002EE6D102F0A5FFFFF751FFFEE7010000005832000008B5124A124B1A60124A136843F4007398
:40020000136000230AE0032B03D80F4A52F8231000E00E490E4A42F8231001332F2BF2D90C4B1A780C4B1A70094A0C4B1A6000F049F900220A4B1A6008BD00BF0004FA0572
:400240000CED00E014ED00E000000000A10100000080FF1FBC7600400481FF1F08ED00E00081FF1FFEE700BFF0B40022174611E050F82760F3B226F0FF0608E001EB420599
:4002800011F812406D78A5550132013BDBB2002BF4D10137202FEBD9F0BC7047F0B4264B1B78DBB225480278D2B2254C2178C9B203F00706234D2E701B0901352B7042F010
:4002C0000303037041F0030323704A251E4B1D7080231E4D2B70502611352E7048F280060F352E800C2605F5E6652E704025184E357002363570174D2B70102608352E702F
:40030000012637352E700425134F3D700C373B70202304373B702C373E70104E3570104D2B70104D104B1D60217002704422A3F2CA231A70F0BC7047CF010049F84600408D
:40034000F94600406E5800400D5100401C51004001590040835A0040C45A0040205B0040235B004003010401405B004008B50A46002102F00CFF08BD08B502F0FDFE08BDDC
:4003800038B50024344B1C80502202331A70012202331A801823314A13705F210232118002321370BF2102321180023213702C482C490422FFF7E0FF06222B4B1A705222DD
:4003C000A3F580731A70294B1B78DBB2284A13704FF4E162274B1A8041F25122023B1A8019250CE0244B1B7803F0010343EA440404F003044FF4F07000F0FAF8013D0DB13C
:40040000032CEFD115B90320FFF72CFF1B4A4FF48073138007231370002319490B704820023108701370053213700222154B1A7004220A331A70144A137843F00F031370E4
:40044000013A137843F001031370013A137843F08003137038BD00BF804000408640004000410040F4060048004300400F010049A1460040224200402542004004400040AE
:400480000640004001400040A2430040012807D8044B53F820201844017A13780B431370704700BFA8310000012808D8044B53F820201844017A137823EA0103137070471C
:4004C000A831000038B572B6374A137843F00403137000240AE0354963001A1952000A44D068118AFFF742FF0134E4B2062CF2D94FF090402E49FFF7B7FE0A252D4B1D704C
:4005000003223B3B1A8040F2032204331A8002F1804202F5A732137843F0020313701032137843F002031370234C237843F040032370A2F58632513A137843F010031370CA
:400540001E481F490822FFF717FF1E481E492A46FFF712FF1D481E490822FFF70DFF1D481D490822FFF708FF1C481D490822FFF703FF84231B4A137003321370A2F54142FC
:40058000B93A137843F008031370174D61232B70FFF7F6FE81232B70FFF780FE134821460E22FFF7E9FE38BDE8460040A83100008400004883580040A04300400251004034
:4005C000C8060048F0510040D006004812510040DC06004822510040E406004832510040EC060048D804014000480040B04300400230800803D000BF01380046FCD1704770
:40060000EFF3108072B6704780F31088704700BF01BE704708B5034B1B7A03FB00F0FFF7E7FF08BD0C81FF1F70B504460E46074B1D681F2802D90020FFF7EAFF04F01F04C6
:40064000103455F8240045F8246070BD08ED00E038B504460D46072902D90020FFF7D8FF1F2C02D90020FFF7D3FF04F01F0000F1604000F564406D01EDB2057038BD00BFFF
:4006800010B59DF80840012C4AD10138092826D8DFE800F00525250525250D15251D0F2B02D9214800781BE02048007818E00F2B02D91F48007813E01E48007810E00F2B77
:4006C00002D91D4800780BE01C48007808E00F2B02D91B48007803E01A48007800E0002040B201EB401101FB02F1C90B8AB20D2B0BD8C3F10E0289B211418AB2124901EBC9
:400700008401013301F8023C05E00F4B03EB84030F2103F8021C013C0B4B23F8242010BD0020FFF775FF10BD180100491C010049190100491D0100491A0100491E01004958
:400740001B0100491F010049A481FF1FF8B50746FFF756FF06460D4D2B7843F003032B700B4C237843F0030323700A4B1F700320FFF750FF2B7803F0FC032B70237803F03E
:40078000FC0323703046FFF73FFFF8BDF8460040F9460040925800400022314B1A7101285DD170B578222F4B1A70002402331C70092201331A707F232B4A137001321470BF
:4007C00001321370294B1C7001331C7001331C7001250A331D70502203F527631A700A2201331A702C2201331A7001331C70442203331A70482201331A7001331D70022668
:4008000002331E70122201331A70282201331A70EB2201331A705220FFF798FF5822144B1A7001331C70052205331A7001331E7001331C7001331C70204600F067F90D4AD6
:400840000D4B1A602846294600F084F90720294600F004FA1D200949FFF7E6FE70BD7047A481FF1F004E0040044E0040084E00409458004033330300B881FF1FE90A0000B3
:40088000F0B583B0274D01272F70274E00247471102000F04DF9102000F0CEF91D200721FFF7D6FE0422214B1A7001331C7007331C701F4A137843F0180313701D4B1C70D0
:4008C00003F2F5231C7001331C700A22A3F209331A7001331C7002331C705B2205331A705E2201331A7004331C701423124A13700097022048F6F0514FF40042FFF7C0FED0
:400900002B7806EB830313F8022C0C4B1A702B78013B36F823200A4B1A802878FFF73CFF03B0F0BD1C81FF1FA481FF1F96580040075B004093580040014E00400E4E0040EF
:400940000C4E004070B5FFF75BFE06462A4B1B782A4B1A7842F001021A701A7842F010021A7010331A7842F001021A701A7842F010021A70224D2B7843F002032B70214CA9
:40098000237843F0020323701F4A137843F0030313700320FFF73EFE2B7803F0FD032B70237803F0FD032370184A137843F0060313707A22164B1A70164A137843F0010325
:4009C00013701032137843F0010313700F3A137843F0010313701032137843F0010313704FF000530C4A1360A2F5C07213603046FFF70AFE70BD00BF1C81FF1FAA430040F9
:400A0000F8460040F9460040915800407758004082580040A143004080E200E008B5084B9B794BB9064BDB7913F0FF0F01D1FFF727FF0122024B9A71FFF784FF08BD00BFBD
:400A4000A481FF1F024A137843F0010313707047004E0040154B1B7803F00303012B07D8134B1888023B1B889BB243EA004013E0022B0AD10E4B1888023B1B7843EA00439A
:400A80000C4A107843EA002006E00B4B188883B2074A108843EA0040084B1B7913F0FF0F02D00022054B5A71704700BF144E0040124E0040114E0040104E0040A481FF1F65
:400AC00010B5074B1B68C01A02F086F90446054B186802F081F90146204602F085FA10BDBC81FF1FB881FF1F704700BF10B5002404E02046FFF7D8FC0134E4B2012CF8D9B2
:400B0000FF22014B1A7010BD1D81FF1F10B50446FFF7ECFF2046FFF7B9FC014B1C7010BD1D81FF1F014B188880B2704780400040034B1A7800F0F80010431870704700BFE5
:400B400082400040024B187800F00700704700BF8240004070B505460E46FFF7F3FF0446FFF7E0FF854256D02B4B1B7803F0010294B900B185B938B9284B1D80284A137836
:400B800003F0BF03137070BD254A137843F040031370224B1D8070BD22B3002321490B7001240F310C7004310B700C390B7803F07F030B701A4B1B7813F0080F00D08DB958
:400BC000194B18800721013B1970164B1B7813F0010FFAD110490B7803F0FE030B700021104B19700C4B1B7813F0010F0DD00E4B1D800EB1032200E001220A4B1A70094B00
:400C00001B7813F0010FFAD170BD044B1D8002490B7813430B7070BDA243004080400040824000400140004002400040014B188880B2704700410040034B1A7800F0F80016
:400C400010431870704700BF02410040024B187800F00700704700BF0241004070B505460E46FFF7F3FF0446FFF7E0FF854256D02B4B1B7803F0010294B900B185B938B9EF
:400C8000284B1D80284A137803F0BF03137070BD254A137843F040031370224B1D8070BD22B3002321490B70012413310C7004390B7008390B7803F07F030B701A4B1B7872
:400CC00013F0080F00D08DB9194B18800721013B1970164B1B7813F0010FFAD110490B7803F0FE030B700021104B19700C4B1B7813F0010F0DD00E4B1D800EB1032200E025
:400D000001220A4B1A70094B1B7813F0010FFAD170BD044B1D8002490B7813430B7070BDA143004000410040024100400140004002400040054A137843F001031370103206
:400D4000137843F001031370704700BFA8430040054B1A7802F0FD021A701A7800F0020010431870704700BF20580040014B1870704700BF805B0040094B1B7803F00C0355
:400D80005B08084A127812F0040F00D0013303F1924393F82031DBB2034A1370704700BF20580040215800400846004008B51822084B1A700133002018701A7842F00802E6
:400DC0001A701A7842F002021A70FFF7C1FFFFF7D3FF08BD2058004008B5074B1B7823B9FFF7E4FF0122044B1A70FFF7A3FF7820FFF7BCFF08BD00BFAC81FF1F08B5064B0B
:400E00001A7802F0F3021A701A7800F00C0010431870FFF7B1FF08BD20580040024A137843F080031370704777650040014B1870704700BF85640040014B1878704700BF7B
:400E40006564004008B50146014800F0ABF908BD24640040024B186820F07F40704700BF4464004008B50146014800F09BF908BD0464004000F00300044B1A7802F0FC02FF
:400E80001A701A7810431870704700BF7765004008B501E0FFF7DEFFFFF7CEFF10F0080FF8D108BD08B548F69F40FFF7CBFF48F69F40FFF7D7FFFFF7A3FB084A137843F0A9
:400EC00010031370FFF7A0FB0020FFF7D3FFFFF7DFFF0220FFF7AAFF08BD00BF9564004008B5054B1B7823B9FFF7DCFF0122024B1A70FFF793FF08BDAD81FF1F054A1378D7
:400F000043F0040313701032137843F004031370704700BFA74300400F490B7803F0FC0200F0030313430B7001280AD10B4B1B78DBB20B4A13700B4B1B78DBB201321370B9
:400F40007047094B1B78DBB2054A1370074B1B78DBB201321370704742580040120100493446004016010049B1010049B901004908B50120FFF7D0FF0B4B1A7842F0200268
:400F80001A701A7802F0FB021A701A7842F008021A7003F295231A7802F0E7021A701A7842F010021A7008BD4258004008B5054B1B7823B9FFF7DCFF0122024B1A70FFF764
:400FC0009DFF08BDAE81FF1F054A137843F0020313701032137843F002031370704700BFA8430040054B1A7802F0FD021A701A7800F0020010431870704700BF2458004097
:40100000014B1870704700BF815B0040094B1B7803F00C035B08084A127812F0040F00D0013303F1924393F83031DBB2034A1370704700BF24580040255800400946004079
:4010400008B51822084B1A700133002018701A7842F008021A701A7842F002021A70FFF7C1FFFFF7D3FF08BD2458004008B5074B1B7823B9FFF7E4FF0122044B1A70FFF7CE
:40108000A3FF7820FFF7BCFF08BD00BFAF81FF1F08B5064B1A7802F0F3021A701A7800F00C0010431870FFF7B1FF08BD24580040054A137843F0080313701032137843F037
:4010C00008031370704700BFA2430040084A137843F060031370A2F5A652133A137843F0010313701032137843F001031370704777580040054B1A7802F0FC021A701A7875
:4011000000F0030010431870704700BF5858004008B50220FFF7EEFF08BD00BF08B5054B1B7823B90122034B1A70FFF7F1FFFFF7CDFF08BDB081FF1F084A137843F060038F
:401140001370A2F5A652133A137843F0020313701032137843F002031370704777580040054B1A7802F0FC021A701A7800F0030010431870704700BF5A58004008B501207A
:40118000FFF7EEFF08BD00BF08B5054B1B7823B90122034B1A70FFF7F1FFFFF7CDFF08BDB181FF1FCBB20370C1F307234370C1F307418170704700BF2DE9F04F8BB01F46BB
:4011C00080468946164600F06FF9DFF8D8A204469AF900300D46013304D03046394600F083FF20B9204629460BB0BDE8F08F4046494600F079FF834660BB30463946002281
:40120000002301F0D5FC0028ECD09AF900309E4C01229E4900208DE814005A1CCDF820B0CDE90289CDE90467CDE906010DD0022B0BD0684600F084FF002800F09380089B87
:401240001BB101F06DFF089B0360DDE906010BB0BDE8F08F404649460022002301F0A8FCF8B1304639460022002301F0A1FC834600284ED084489AF900300121002200242D
:401280000025CDE90289CDE90467CDE90645019000910892002BCCD07C4B0022CDE90623D3E72046294600F019FF834600285ED0204629460022002301F07AFC002891D09B
:4012C0004046494600F00AFF00288BD03046394600F004FF002885D09AF900306A480421002200240025022BCDE90289CDE90467CDE9064501900091089200F08880684601
:4013000000F01EFF002800F08280089B002B9CD097E73046394600F0E1FE00283FF462AF304639460022002301F04CFC00283FF459AF55499AF800300122CDF820B0CDE9FA
:401340000289CDE9046701910092002B3CD050490020022BCDE9060130D101F0E1FE21230360D2E701F0DCFE2123036067E74046494600F0B3FE00289AD03046394600F0A5
:40138000ADFE002894D02046294600F0ADFE00BB3D4A9AF8004001230890CDE90289CDE90467019200937CB10020002102460B4601F0C0FA022CCDE90601CED0684600F055
:4013C000BFFE0028A1D1C8E700220023CDE90623F4E72D499AF900300322CDF820B0CDE90289CDE9046701910092ABB9294D4FF060444046494600220023CDE9064501F066
:40140000E1FB50BB9AF90030022B7FF478AF01F087FE2223036078E71F4D00244046494600220023CDE9064501F0CCFB0028E9D000221A4B3046394601F052F904460D46E5
:4014400000F086FE22462B4601F0B2FB0028D9D10F4B0022CDE90623D4E700220F4B3046394601F03DF904460D4600F071FE22462B4601F09DFB0028C4D1094B4FF06042B1
:40148000CDE90623BEE700BFE03100000000F03F0000F0FFFFFFEF470000F07F0000E03FFFFFEFC71E81FF1F2DE9F04F144623F00047024657EA04000E468FB01D469C4619
:4014C000214634D06E4B26F0004A9A459346B14626DC24D09F4223DC694B9F4200F08F80B9F1000FC0F28F804FF0000879BB644B9F4200F0A580634B9F4267D0BCF1804F73
:4015000000F0E283604B9C4521D1B9F1000F1EDB104631460FB0BDE8F04F00F015BD62B10AF1404000F5801050EA0B0007D10346544918460FB0BDE8F08F5745CCDD5348BD
:401540000FB0BDE8F04F00F0FDBD4FF0000810463146CDF808C0009200F0BCFD009ADDF808C0BBF1000F20D04FEAD97909F1FF3958EA09037AD0464B9F4240F38F8003F163
:4015800004739F4240F31084424B9A4540F39283BCF1000F40F3928337A1D1E900010B46024601F09DF80346C3E7BAF1000F04D0344B29F0404E9E45D6D1BCF1000FC0F203
:4015C000B683B9F1000F08DB0346B2E7BCF1000FC0F2528413463146ABE70AF1404A0AF5801A58EA0A0340F05E8402460B4600F0C3FE0B46024601F09DF9034699E70029B3
:401600003FF46EAF8CE7244B9F422CDCA3F154739F427FF769AF40F213403B15834240F34B84C3F58663033321FA03F000FA03F38B427FF459AF00F00100C0F1020855E724
:401640000AF1404303F5801353EA0B0300F03983104B9A4540F36483BCF1000FC0F22E832346294665E74FF002083FE7104631463346BCE7AFF300809C7500883CE4377EEB
:401680000000F07F0000F03F0000E03F183200000000E041FFFFEF3FFFFF3F43BAF5801F4FF0000205DACA4B01F01AF88A466FF034024FEA2A53C74ECAF3130AA3F2FF33FF
:4016C0004AF07F571344B2450C9347F4401740F3D083C14B9A4540F307840026B4460C9BA7F5801701330C933946BC4B4FEACC0C6344D3E900AB52465B46CDF834C0CDE912
:40170000060100F039FE52465B46CDE90801DDE9060100F033FE02460B460020B04901F009F902460B46DDE90801CDE90A2300F0D7FF02460B46CDE90223CDE904237B1003
:4017400043F0005303F5002399190020002306460F460293DDE902231046194632463B46CDE9000100F0BCFF02460B46DDE9080100F002FE5246CDE908015B46304639465D
:4017800000F0FAFD02460B46DDE9060100F0F4FD02460B46DDE9000100F0A2FF02460B46DDE9080100F0E8FDDDE90A2300F098FFDDE90423CDE906011046194600F090FF75
:4017C00002460B4606460F4600F08AFF6EA3D3E9002382468B463046394600F081FF6CA3D3E9002300F0CAFD32463B4600F078FF69A3D3E9002300F0C1FD32463B4600F0C1
:401800006FFF67A3D3E9002300F0B8FD32463B4600F066FF64A3D3E9002300F0AFFD32463B4600F05DFF62A3D3E9002300F0A6FD02460B465046594600F052FFDDE9042324
:4018400006460F46DDE9000100F098FDDDE9062300F046FF32463B4600F090FDDDE9006782468B4632463B463046394600F038FF00225C4BCDE9080100F080FD52465B46D8
:4018800000F07CFD02980F460646DDE9000132463B4600F025FF32463B46CDE90001DDE9060100F01DFF0022CDE906014D4B3046394600F061FDDDE9082300F05DFD0246EA
:4018C0000B465046594600F057FDDDE9042300F007FF02460B46DDE9060100F04FFD82468B46DDE9000152465B4600F047FD32A3D3E9002302980F46064600F0F1FE30A32B
:40190000D3E90023CDE904013046394600F0E8FEDDE90023CDE906013046394600F02CFD02460B465046594600F026FD26A3D3E9002300F0D5FE02460B46DDE9060100F0EC
:401940001DFDDDF834C0284BCDF818C06344D3E9002300F013FDCDE900010C9800F05AFE06460F46DDE90401204BDDF818C09C44DDE90023DCE900AB00F000FD52465B4668
:4019800036E000BFAFF30080EF4E454A287ECA3F65DBC9934A86CD3F01411DA96074D13F4D268F515555D53FFFAB6FDBB66DDB3F033333333333E33F000000E009C7EE3F0E
:4019C000F5015B14E02F3EBEFD033ADC09C7EE3F000040438E98030079B60B00083200000000F03F00000840F8310000E8310000CDE906AB00F0C2FC32463B4600F0BEFCD3
:401A0000029832463B4682468B4600F0B5FCDDE9062300F0B1FCDDE9042300F0ADFC02460B46DDE9000100F0A7FCCDE9020108F1FF3858EA09030CBFD54BD64B0022CDE9B9
:401A400004230023CDE900450093DDE90067204632463B46294600F08FFC52465B4600F03FFEDDE90223804689462046294600F037FE02460B464046494600F07FFC0446D5
:401A80000D465246304639465B46CDE9024500F027FE06460F4620463B462946324600F06DFCBD4B824699428946884640F3138101F13F4303F5E003034340F0E581A0A34E
:401AC000D3E90023DDE9020100F058FC324604460D463B465046494600F04EFC02460B462046294601F08CF8002840F0CD814C462015A0F2FE304FF4801101414144C1F3A6
:401B00000A50A64CA0F2FF35C1F3130BC0F5826003302C414BF4801B21EA040300224BFA00FB3946304600F027FC06460F46DDE902018BEAE87B0BEBD87B32463B464FEA77
:401B40000B5A00F01BFC80A3D3E90023002420460D4600F0C5FD3246804689463B462046294600F009FC02460B46DDE9020100F003FC77A3D3E9002300F0B2FD76A3D3E952
:401B8000002306460F462046294600F0A9FD02460B463046394600F0F1FB06460F4632463B464046494600F0E9FB42464B4604460D4600F0E1FB02460B463046394600F009
:401BC000DBFB2246804689462B462046294600F087FD63A3D3E9002306460F4600F080FD61A3D3E9002300F0C7FB32463B4600F077FD5FA3D3E9002300F0C0FB32463B46EE
:401C000000F06EFD5CA3D3E9002300F0B5FB32463B4600F065FD5AA3D3E9002300F0AEFB32463B4600F05CFD02460B462046294600F0A2FB06460F4632463B46204629465F
:401C400000F04EFD0022CDE900014FF080433046394600F091FB02460B46DDE9000100F069FE424606460F464B462046294600F037FD42464B4600F081FB02460B463046DF
:401C8000394600F079FB22462B4600F075FB02460B4600203F4900F06FFB8A44BAF5801F0246C0F227815346DDE9040100F018FD03463EE4BCF1000FFFF66EAC002319468E
:401CC00037E40B46334934E433461046314600F007FD03462DE4324B21F000449C4240F3FA80304B0B4403430CD132463B4600F043FB02460B46DDE9020100F06DFF0028F9
:401D00003FF4F6AE20A3D3E90023DDE9040100F0E7FC1DA3D3E9002300F0E2FC034608E4BCF1000FCADA234605F1004101E402460B460020174900F0FDFD42E4AFF30080BA
:401D4000FE822B654715973C00000000432EE63FEF39FAFE422EE63F396CA80C615C20BED0A4BE726937663EF16BD2C541BDBB3E2CDE25AF6A56113F93BDBE166CC1663F2F
:401D80003E5555555555C53F59F3F8C21F6EA5010000F0BF0000F03FFFFF8F40FFFF0F00FFCB904000346F3F634B9A4582DD634B9A453FF7EDAB0022604B00F0DDFA54A3F9
:401DC000D3E9002306460F4600F08AFC52A3D3E90023CDE900013046394600F081FC3246CDE902013B463046394600F079FC002282468B4630463946514B00F071FC024603
:401E00000B4647A1D1E9000100F0B6FA32463B4600F066FC02460B4600204A4900F0ACFA02460B465046594600F05AFC3EA3D3E9002300F055FC02460B46DDE9020100F07A
:401E40009BFA06460F46DDE9000132463B4600F095FADDE90023002082468B4600F08CFA02460B463046394600F086FACDE90201DDE50026B44637E4334600202F4900F020
:401E800059FD0346FFF755BB29A3D3E90023DDE9040100F025FC26A3D3E9002300F020FC0346FFF746BBB8F1010F03467FF441AB01F10041FFF73DBB00297FF446ABC3F53B
:401EC0008263033347FA03F000FA03F3BB4217D08846FFF710BB1B4B9C423FF709AEDDE90023924693462EE64FF480264FF0010CFFF7FABB5A4600F0BBF902460B46D3E6DB
:401F000000F00100C0F10208FFF7F5BAAFF30080000000604715F73F44DF5DF80BAE543E555555555555D53FFE822B654715F73F9C7500883CE4377EFEFFEF3F0000F03FFD
:401F40000000D03F0000E03F2DE9F041604E0C46B6460E40764505460B4600F098800029024676DD5FEA215E00F08180AEF2FF3EC3F313031EF0010F43F480135ED10027DF
:401F80003C46D10F01EB43034FEA6E0E520016204FF4001165189D424FEAD2764FEA420202DC5B1B6C180F44013806EB43034FEA5101EFD1844620264FF000410AE0A3425D
:401FC00020D0D50F013E4FEA510105EB43034FEA420220D09C420CEB0105F0DA002D05EB010C09DBA0461B1B954288BF03F1FF334446521B0844E4E7BCF1000FF2DB04F101
:402000000108F0E7954217D8002D05EB010C48DB98460023ECE7134315D140087B1003F17F5303F50013FA0703EB0E57394648BF40F00040BDE8F0811C46C2E7D10F01EBC2
:40204000430352009BE7411C31D000F001031844E3E721F000460643ECD079BB8E46D30AAEF1150E5205002BF9D0DC0222D400215B00D80201F10101FAD5C1F10100C1F12E
:40208000200422FA04F4234386448A406EE702460B4600F025FB2A46234600F06FF9BDE8F081BCF1000FAADAA0460023A0E701373046B3E7202401200021E2E702460B46A9
:4020C00000F05AF902460B4600F034FCB2E700BF0000F07F21F00041704700BF41F0004101F58010C00F704710B431F0004408D0114BA1F580129A4208D804205DF8044BCE
:40210000704718B902205DF8044B704701F1FF41094B01F5E0019942EFD9B4F5801F01D20320EBE7054B9C4201D00020E6E7B0FA80F04009E2E700BFFFFFDF7F0000F07FE8
:402140000020704700200149704700BF0000F87FF0B5C1F30A5EAEF2FF35132D83B002460B460C464FEAD17607462EDC002D48DB3C49294101EA030010432BD049080B4050
:4021800053EA02070CD04FF48023132D24EA010143FA05F444EA01040CBF4FF0004700273149234601EBC606D6E900453A462046294600F0E3F8CDE90001DDE90001224641
:4021C0002B4600F0D9F803B0F0BD332D06DDB5F5806F43D01046194603B0F0BDAEF2134E4FF0FF3121FA0EF10142F3D049080142D6D04FF0804320EA010143FA0EF70F43DD
:40220000CEE721F000410143E4D0C3F3130141EA000CCCF1000141EA0C0C13495C0C4FEA1C3C0CF4002C640401EBC6014CEA0403D1E900452046294600F0A0F8CDE90001B1
:40224000DDE9000122462B4600F096F8024621F0004141EAC67310461946BDE700F08EF8BAE700BFFFFF0F002032000000000000F8B5C1F30A5604460D460B46174616BBD7
:4022800021F00043034332D00022314B00F028FA304A044697420D460B4637DB40F2FE72C1F30A56363E3E44964215DD24A1D1E9000122462B4600F053F821A3D3E90023D2
:4022C00000F00EFAF8BD40F2FF72964224D040F2FE723E449642E9DC002E09DD23F0FF4323F4E00343EA065520462946F8BDF8BD16F1350F15DA4CF250339F42D6DC12A196
:40230000D1E9000122462B4600F02AF80EA3D3E9002300F0E5F9F8BD02460B4600F02EF8F8BD23F0FF4323F4E003363643EA0655204629460022084B00F0D2F9F8BD00BFC4
:402340009C7500883CE4377E59F3F8C21F6EA50100005043B03CFFFF0000903CAFF3008003F0004321F0004243EA0201704700BF81F0004102E000BF83F0004330B54FEAF5
:4023800041044FEA430594EA050F08BF90EA020F1FBF54EA000C55EA020C7FEA645C7FEA655C00F0E2804FEA5454D4EB5555B8BF6D420CDD2C4480EA020281EA030382EA45
:4023C000000083EA010180EA020281EA0303362D88BF30BD11F0004F4FEA01314FF4801C4CEA113102D0404261EB410113F0004F4FEA03334CEA133302D0524263EB4303CD
:4024000094EA050F00F0A780A4F10104D5F1200E0DDB02FA0EFC22FA05F2801841F1000103FA0EF2801843FA05F359410EE0A5F120050EF1200E012A03FA0EFC28BF4CF00A
:40244000020C43FA05F3C01851EBE37101F0004507D54FF0000EDCF1000C7EEB00006EEB0101B1F5801F1BD3B1F5001F0CD349085FEA30004FEA3C0C04F101044FEA4452CA
:4024800012F5800F80F09A80BCF1004F08BF5FEA500C50F1000041EB045141EA050130BD5FEA4C0C404141EB010111F4801FA4F10104E9D191F0000F04BF01460020B1FA07
:4024C00081F308BF2033A3F10B03B3F120020CDA0C3208DD02F1140CC2F10C0201FA0CF021FA02F10CE002F11402D8BFC2F1200C01FA02F120FA0CFCDCBF41EA0C019040E6
:40250000E41AA2BF01EB0451294330BD6FEA04041F3C1CDA0C340EDC04F11404C4F1200220FA04F001FA02F340EA030021FA04F345EA030130BDC4F10C04C4F1200220FACF
:4025400002F001FA04F340EA0300294630BD21FA04F0294630BD94F0000F83F4801306BF81F480110134013D4EE77FEA645C18BF7FEA655C29D094EA050F08BF90EA020F6C
:4025800005D054EA000C04BF1946104630BD91EA030F1EBF0021002030BD5FEA545C05D14000494128BF41F0004130BD14F580043CBF01F5801130BD01F0004545F0FE417A
:4025C00041F470014FF0000030BD7FEA645C1ABF194610467FEA655C1CBF0B46024650EA013406BF52EA033591EA030F41F4002130BD00BF90F0000F04BF0021704730B56E
:402600004FF4806404F132044FF000054FF0000150E700BF90F0000F04BF0021704730B54FF4806404F1320410F0004548BF40424FF000013EE700BF42004FEAE2014FEAE4
:4026400031014FEA02701FBF12F07F4393F07F4F81F06051704792F0000F14BF93F07F4F704730B54FF4607401F0004521F0004120E700BF50EA010208BF704730B54FF01C
:4026800000050AE050EA010208BF704730B511F0004502D5404261EB41014FF4806404F132045FEA915C3FF4DCAE4FF003025FEADC0C18BF03325FEADC0C18BF033202EB6E
:4026C000DC02C2F1200300FA03FC20FA02F001FA03FE40EA0E0021FA02F11444C1E600BF70B54FF0FF0C4CF4E06C1CEA11541DBF1CEA135594EA0C0F95EA0C0F00F0DEF878
:402700002C4481EA030621EA4C5123EA4C5350EA013518BF52EA033541F4801143F4801338D0A0FB02CE4FF00005E1FB02E506F00042E0FB03E54FF00006E1FB03569CF09B
:40274000000F18BF4EF0010EA4F1FF04B6F5007F64F5407404D25FEA4E0E6D4146EB060642EAC62141EA55514FEAC52040EA5E504FEACE2EB4F1FD0C88BFBCF5E06F1ED8F7
:40278000BEF1004F08BF5FEA500E50F1000041EB045170BD06F0004646EA010140EA020081EA0301B4EB5C04C2BFD4EB0C0541EA045170BD41F480114FF0000E013C00F375
:4027C000AB8014F1360FDEBF002001F0004170BDC4F10004203C35DA0C341BDC04F11404C4F1200500FA05F320FA04F001FA05F240EA020001F0004221F0004110EBD37025
:4028000021FA04F642EB06015EEA430E08BF20EAD37070BDC4F10C04C4F1200500FA04F320FA05F001FA04F240EA020001F0004110EBD37041F100015EEA430E08BF20EAAC
:40284000D37070BDC4F1200500FA05F24EEA020E20FA04F301FA05F243EA020321FA04F001F0004121FA04F220EA020000EBD3705EEA430E08BF20EAD37070BD94F0000FA7
:402880000FD101F00046400041EB010111F4801F08BF013CF7D041EA060195F0000F18BF704703F00046520043EB030313F4801F08BF013DF7D043EA0603704794EA0C0F19
:4028C0000CEA135518BF95EA0C0F0CD050EA410618BF52EA4306D1D181EA030101F000414FF0000070BD50EA410606BF1046194652EA430619D094EA0C0F02D150EA01365B
:4029000013D195EA0C0F05D152EA03361CBF104619460AD181EA030101F0004141F0FE4141F470014FF0000070BD41F0FE4141F4780170BD70B54FF0FF0C4CF4E06C1CEAF4
:4029400011541DBF1CEA135594EA0C0F95EA0C0F00F0A7F8A4EB050481EA030E52EA03354FEA013100F088804FEA03334FF0805545EA131343EA12634FEA022245EA1115CF
:4029800045EA10654FEA00260EF000419D4208BF964244F1FD0404F5407402D25B084FEA3202B61A65EB03055B084FEA32024FF480104FF4002CB6EB020E75EB030E22BF93
:4029C000B61A754640EA0C005B084FEA3202B6EB020E75EB030E22BFB61A754640EA5C005B084FEA3202B6EB020E75EB030E22BFB61A754640EA9C005B084FEA3202B6EB9D
:402A0000020E75EB030E22BFB61A754640EADC0055EA060E18D04FEA051545EA16754FEA06164FEAC30343EA52734FEAC2025FEA1C1CC0D111F4801F0BD141EA00014FF01B
:402A400000004FF0004CB6E711F4801F04BF01430020B4F1FD0C88BFBCF5E06F3FF6AFAEB5EB030C04BFB6EB020C5FEA500C50F1000041EB045170BD0EF0004E4EEA113161
:402A800014EB5C04C2BFD4EB0C0541EA045170BD41F480114FF0000E013C90E645EA060E8DE60CEA135594EA0C0F08BF95EA0C0F3FF43BAF94EA0C0F0AD150EA01347FF472
:402AC00034AF95EA0C0F7FF425AF104619462CE795EA0C0F06D152EA03353FF4FDAE1046194622E750EA410618BF52EA43067FF4C5AE50EA41047FF40DAF52EA43057FF461
:402B0000EBAE12E74FF0FF3C06E000BF4FF0010C02E000BF4FF0010C4DF804CD4FEA410C7FEA6C5C4FEA430C18BF7FEA6C5C1BD001B050EA410C0CBF52EA430C91EA030F48
:402B400002BF90EA020F0020704710F1000F91EA030F58BF994208BF90422CBFD8176FEAE37040F0010070474FEA410C7FEA6C5C02D150EA013C07D14FEA430C7FEA6C5C0A
:402B8000D6D152EA033CD3D05DF8040B704700BF8446104662468C461946634600E000BF01B5FFF7B7FF002848BF10F1000F01BD4DF808EDFFF7F4FF0CBF012000205DF852
:402BC00008FB00BF4DF808EDFFF7EAFF34BF012000205DF808FB00BF4DF808EDFFF7E0FF94BF012000205DF808FB00BF4DF808EDFFF7CEFF94BF012000205DF808FB00BF4D
:402C00004DF808EDFFF7C4FF34BF012000205DF808FB00BF4FEA410212F5001215D211D56FF47873B3EB625212D94FEAC12343F0004343EA505311F0004F23FA02F018BFD0
:402C4000404270474FF00000704750EA013005D111F0004008BF6FF0004070474FF00000704700BF80F0004002E000BF81F0004142001FBF5FEA410392EA030F7FEA226C9C
:402C80007FEA236C6AD04FEA1262D2EB1363C1BFD218414048404140B8BF5B42192B88BF704710F0004F40F4000020F07F4018BF404211F0004F41F4000121F07F4118BFDF
:402CC000494292EA030F3FD0A2F1010241FA03FC10EB0C00C3F1200301FA03F100F0004302D5494260EB4000B0F5000F13D3B0F1807F06D340084FEA310102F10102FE2A0B
:402D000051D2B1F1004F40EBC25008BF20F0010040EA03007047490040EB000010F4000FA2F10102EDD1B0FA80FCACF1080CB2EB0C0200FA0CF0AABF00EBC25052421843DE
:402D4000BCBFD0401843704792F0000F81F4000106BF80F400000132013BB5E74FEA41037FEA226C18BF7FEA236C21D092EA030F04D092F0000F08BF0846704790EA010FEE
:402D80001CBF0020704712F07F4F04D1400028BF40F00040704712F100723CBF00F50000704700F0004343F0FE4040F4000070477FEA226216BF08467FEA23630146420239
:402DC00006BF5FEA412390EA010F40F4800070474FF0000304E000BF10F0004348BF40425FEA000C08BF704743F0964301464FF000001CE050EA010208BF70474FF000035D
:402E00000AE000BF50EA010208BF704711F0004302D5404261EB41015FEA010C02BF84460146002043F0B64308BFA3F18053A3F50003BCFA8CF2083AA3EBC25310DB01FAC7
:402E400002FC634400FA02FCC2F12002BCF1004F20FA02F243EB020008BF20F00100704702F1200201FA02FCC2F1200250EA4C0021FA02F243EB020008BF20EADC7070479B
:402E80004FF0FF0C1CEAD0521EBF1CEAD15392EA0C0F93EA0C0F6FD01A4480EA010C400218BF5FEA41211ED04FF0006343EA501043EA5111A0FB01310CF00040B1F5000F28
:402EC0003EBF490041EAD3715B0040EA010062F17F02FD2A1DD8B3F1004F40EBC25008BF20F00100704790F0000F0CF0004C08BF49024CEA502040EA51207F3AC2BFD2F1C1
:402F0000FF0340EAC250704740F400004FF00003013A5DDC12F1190FDCBF00F000407047C2F10002410021FA02F1C2F1200200FA02FC5FEA310040F1000053EA4C0308BF36
:402F400020EADC70704792F0000F00F0004C02BF400010F4000F013AF9D040EA0C0093F0000F01F0004C02BF490011F4000F013BF9D041EA0C018FE70CEAD15392EA0C0FD8
:402F800018BF93EA0C0F0AD030F0004C18BF31F0004CD8D180EA010000F00040704790F0000F17BF90F0004F084691F0000F91F0004F14D092EA0C0F01D142020FD193EA4D
:402FC0000C0F03D14B0218BF084608D180EA010000F0004040F0FE4040F40000704740F0FE4040F4400070474FF0FF0C1CEAD0521EBF1CEAD15392EA0C0F93EA0C0F69D029
:40300000A2EB030280EA010C49024FEA402037D04FF0805343EA111143EA10130CF000408B4238BF5B0042F17D024FF4000C8B4224BF5B1A40EA0C00B3EB510F24BFA3EBC5
:40304000510340EA5C00B3EB910F24BFA3EB910340EA9C00B3EBD10F24BFA3EBD10340EADC001B0118BF5FEA1C1CE0D1FD2A3FF650AF8B4240EBC25008BF20F0010070478B
:403080000CF0004C4CEA50207F32C2BFD2F1FF0340EAC250704740F400004FF00003013A37E792F0000F00F0004C02BF400010F4000F013AF9D040EA0C0093F0000F01F0CB
:4030C000004C02BF490011F4000F013BF9D041EA0C0195E70CEAD15392EA0C0F08D142027FF47DAF93EA0C0F7FF470AF084676E793EA0C0F04D14B023FF44CAF08466EE7E0
:4031000030F0004C18BF31F0004CCAD130F000427FF45CAF31F000437FF43CAF5FE700BF014B1868704700BF8081FF1F0E4B70B51E460E4C0025E41AA410A54204D056F820
:40314000253098470135F8E700F074F8084B094C1E46E41AA4100025A54204D056F8253098470135F8E770BD4032000040320000403200004832000010B5431E0A44914231
:4031800004D011F8014B03F8014FF8E710BD03460244934202D003F8011BFAE7704700000000000000000000035B00402443004040000000405100403000C0510040100023
:4031C00000000140001000140140000800400140000A004C014000020050014020000000706F77000000000000000000000000000000004003B8E23F0000000000000000E4
:4032000006D0CF43EBFD4C3E000000000000F03F000000000000F83F0000000000000000000000000000304300000000000030C343000000F8B500BFF8BC08BC9E467047A6
:403240004D000000F1010000F8B500BFF8BC08BC9E46704729000000683200000881FF1F8000000038000000000000000000E02EC05D00001800000000366E0101FF010085
:4032800000000000000000000000000000000000000000000000000000000000000000003032000000000000000000000000000000000000000000000000000000000000AC
:4032C00000000000000000000000000000000000000000000000000000000000000000002081FF1F000000000000000000000000000000000000000000000000000000000F
:40330000000000000000000000000000000000000000000000000000000000000000000000000000000000000000000000000000000000000000000000000000000000008D
:40334000000000000000000000000000000000000000000000000000000000000000000000000000000000000000000000000000000000000000000000000000000000004D
:40338000000000000000000000000000000000000000000000000000000000000000000000000000000000000000000000000000000000000000000000000000000000000D
:4033C00000000000000000000000000000000000000000000000000000000000000000000000000000000000000000000000000000000000000000000000000000000000CD
:020000040003F7
:0200000480007A
:400000000145004005520040015B00400264004002650040010301406B04014035050140600601404A07014002090140020B014057140140501501404F1601404C170140DB
:400040000418014003190140021B01400740014009410140044201400943014007440140054501400E4601400C47014010480140104901400B4C0140044D0140085001400B
:40008000025101407E0209401828192078087C412784850F8672840F8638848000080202035405A807020C060D300E010FCC12071430150116C0183019C01AC91B3021C0D6
:4000C000230C245026A628042A082C502EA030F0310C3301340F35F037023A203E013F0440434102420549FF4AFF4BFF4F015018580459045A045C995D095F016040624027
:4001000064406540668068806A806C806E8081108559870289188D598F04915F9501960197209B01A147A318A508AB06B320B540B601B71FBA80BB80BC80BF10C043C105C3
:40014000C201C9FFCAFFCBFFCD83CE03CF01D018D403D804D904DA04DB04DC29DD99DF05E040E240E440E540E680E880EA80EC80EE80004108010A240B800E201140122487
:40018000184019011A041E012001210122242540271829012C882E0831083220350A371038013A043B803D883E22400442804308440146904B804E025D215E405F047C0461
:4001C00080088A109C80C009C22EC407CAE1CCE6CEFBD0D7D218D6F0DE40E6040201030504040E04150E16021B051C081D021E121F102220230A260128302A082B103018F3
:4002000032013303342035103606370C3E113F1040534104420145EC46204702481B49FF4AFF4BFF4D834E034F01501856025712580459045A045B045C395D295F0160403B
:40024000624064406540668068806A806C806E808101860187018A018E02B101B203B501BE04BF11C016C104C205C403C60CC7E0C824C9FFCAFFCBFFCC62CDA0CEF0CF4154
:40028000D00CD804D904DA04DD02DF01E640E702E910EA30EB10ED10EE10EF12010803050540068007200E21144C161018101D401E201FA22004210222022408268827202B
:4002C0002C042F80308033403440369838013A043E014050434045824610480C4A014D014F4450025140561057085F086C016E106F10762A82048601900192099404954194
:400300009660978498089B089C809D0A9EBEA140A488A50CA612A708AD21C0B7C2A0C470CAA0CC70CE83D0DBD21CD640E205EE01E205EE01E080E604000402A3040A058072
:4003400006C4071508040A400B080C030D030E6C0F041218152A162017441D731F0C240528C72A302D732F04301F333035C036E0370F39283A803B803F044003450449FF98
:400380004A074BFF4C404D204EF04F05500854015604580459045A045B045C225D225F01604061A8624063208108820585048BF38D8C8F73913394019522990F9BF0A1FF5A
:4003C000A511A604A90CADF3AE03AF0CB004B18CB202B34CB50FB601B730BB28BE41D804D904DC29DF01002401800280068009080A800E20102012081402161019801A8027
:400400001D801E601F4020042114228025342601271229802D0A2E202F0232883715388839203D803E0A3F1041044810490450045108530858415A085B20638080408240EF
:400440008360888089208B029080920893109404964097809843990A9ABA9B059D849F02A020A140A208A480A594A681A708A908AC10C01FC22CC4A6CAF8CCEACEFED0021D
:40048000D60FD801ECA00302070109010C020E040F011120135015481724197C1E012101251427282804297C2A0A2E012F023001310132063302350C3608377039023E0548
:4004C0003F0454185604580459045B045C295D205F018120870C89208F10950C971399209D119F06A708AB13AD11AF0EB110B30FB520BA02BB08BF01C013C105C6BCC70E37
:40050000C81CC9FFCAFFCBFFCEF0CF44D00CD283D804D904DA04DB04DC22DD92DF01E6C0EA40EB0205400E02100413201448158219021C201D401F012008210122082501FD
:40054000272529842B082C022D1A2E10328833503715388639103DAA4348480449804B10506051085F026484670269406A207280734084018508900291809218954096606D
:4005800097C0980A9A3A9B109C809D0A9E809F05A002A140A484A58CA601A842A902AF22B404C080C280C4C0CAFECCEECEFFD00AD208D680D8B0E808EA10EE03B980BF40A3
:4005C000D904DF012002E808EE03B001ECA030803308360837403B20CCF0CE103310870897209F40A480A608A708CC10E64097209F50A480A6088310864097209F10A48023
:40060000A608AB40E230EE802801291034047C08CA08CC01DE013401980199109C0CCC01001007401A804640538081108B8099109C0CC006C608D001D404E0010B400F80EA
:4006400044018008834090109B409C0C9E40AA40C20CD0040280208027085180564093089A40A180A480A608AF14B580C010C860D460EE5057086708820883089308A608AF
:40068000AA80AC80B040B308D440D880E220E680EA10EC200C08601090109C099E40A408AB40AC04AF40C204D802B009B240E801EC05000C01010A0C0B01100411011A04E9
:4006C0001B0100FF010A00000000000000005A004000213C1C001C00C0000000206040004000800040400000000050000028280028004000070018010000000000000000BD
:4007000000000000000000000000000000000000000000000000000000000000000000000000000000000000000000000000000000000000000000000000000000000000B9
:400740000000000000000000000000000000000000000000000000000000000000000000000000000000000000000000000000000000000000000000000000000000000079
:400780000000000000000000000000000000000000000000000000000000000000000000000000000000000000000000000000000000000000000000000000000000000039
:4007C00000000000000000000000000000000000000000000000000000000000000000000000000000000000000000000000000000000000000000000000000000000000F9
:0200000490006A
:0400000000004005B7
:0200000490105A
:04000000BC90ACAF55
:0200000490303A
:02000000A771E6
:0200000490402A
:4000000000000000000000000000000000000000000000000000000000000000000000000000000000000000000000000000000000000000000000000000000000000000C0
:400040000000000000000000000000000000000000000000000000000000000000000000000000000000000000000000000000000000000000000000000000000000000080
:400080000000000000000000000000000000000000000000000000000000000000000000000000000000000000000000000000000000000000000000000000000000000040
:4000C0000000000000000000000000000000000000000000000000000000000000000000000000000000000000000000000000000000000000000000000000000000000000
:0200000490501A
:0C00000000012E16106900012E2BB7DA4B
:00000001FF