:400000000080002011000000B9010000B901000008B5044B1A6803F53F5302331A6000F0CDF800BFFA46004010B5054C237833B9044B13B10448AFF300800123237010BD3E
:400040009081FF1F00000000EC2D0000084B10B51BB108480849AFF300800848036803B910BD074B002BFBD0BDE81040184700BF00000000EC2D00009481FF1F0881FF1FFF
:400080000000000030B583B062B60123019300F0A7FF00F039FF01F08BF8FF2000F0FEFE01F064F8FF2001F02BF800F061FD00F073FD48F6A04000F05DFF01F0AFF801F0FA
:4000C00085F801F0E1F801F0B7F800F0EFFF00F095FF002525B9002001F0E4F8012503E0FF2001F0DFF8002500F05EFD00EB80002D4B83FB00230344C017C0EBE33002F015
:400100000DFB02460B4600204FF0804101F0D6F80022264B02F068FB02F000FE0446244890FBF4F000F026FF40F66E739C420EDD082000F0FBFE082001F02AF82346002C6C
:4001400001DA04F11F035B111A4A136019E0B4F5F77F0DDB042000F0E9FE042001F018F82346002C00DAE31C9B10124A136008E0002000F0DBFE002001F00AF864000D4BA2
:400180001C600C4B1868002800DA0330C0F3870000F084FE074B1868002800DA0330C0F3870000F0ADFF95E70180008000805B40001BB700BC81FF1FFEE700BF08B5104EAA
:4001C000104D16E029686B68AC68002204E051F8040B43F8040B0432A242F8D1E868002203E0002143F8041B04328242F9D11035013E002EE6D102F0BFFDFFF743FFFEE7E1
:4002000001000000A02E000008B5134A134B1A60134A136843F40073136000230AE0032B03D8104A52F8231000E00F490F4A42F8231001332F2BF2D90D4B1A780D4B1A70F8
:400240000A4A0D4B1A6000F089F900F075FA00220A4B1A6008BD00BF0004FA050CED00E014ED00E000000000B90100000080FF1FBC7600400481FF1F08ED00E00081FF1F74
:40028000FEE700BFF0B40022174611E050F82760F3B226F0FF0608E001EB420511F812406D78A5550132013BDBB2002BF4D101372A2FEBD9F0BC7047F0B53C4B1B78DBB2B2
:4002C0003B4C2278D2B23B4D2978C9B203F00706394806701B090130037042F00303237041F003032B7045F60120344B18805020113318709520103318700D201033187032
:400300001C20C03318700C2003F26F63187040232B4803700230037006300370023003708020284B1870083318704FF0100E093383F800E0073318702023234E33700127BC
:40034000263637700426DFF898C08CF800600CF1060C8CF800700CF1020C8CF800701B4F38701B48037004300670033080F800E02530067009262030067003300370C026D2
:4003800005300670033003701248134B186013480433186040F2011016331880297022704422A3F539731A70F0BD00BFCF010049F8460040F94600406E5800400C5100400A
:4003C00001590040835A00409C5A0040D05A0040D45A004001010201405B004003010101C45A004008B50A46002102F0F6FC08BD08B502F0E7FC08BD38B540F2FF32394BF2
:400400001A801823384A13700024023214805021023211702E2235490A8002310B7002310A80334A137040F2572204310A8002310B7002310A802F4A13702F482F49042227
:40044000FFF7D6FF06222E4B1A705222A3F580731A702C4B1B78DBB22B4A137040F219722A4B1A8042F25122023B1A8019250CE0274B1B7803F0010343EA440404F003048E
:400480004FF4F07000F048F9013D0DB1032CEFD115B90320FFF7F4FE1E4A4FF4807313800723137000231C490B704820023108701370053213700222184B1A7004220A33FF
:4004C0001A70174A137843F03F031370013A137843F001031370013A137843F08003137038BD00BF8040004082400040884000408E4000409640004000410040840D0048D3
:40050000004300400F010049A14600402242004025420040044000400640004001400040A2430040012807D8044B53F820201844017A13780B431370704700BFF02D000015
:40054000012808D8044B53F820201844017A137823EA010313707047F02D000038B572B661224F4B1A70FFF747FF4E4A137843F00403137000240AE04B4963001A1952006C
:400580000A44D068118AFFF72DFF0134E4B2052CF2D900240BE04449A3001A1952000A44106B516B1022FFF723FF0134E4B2002CF1D04FF090403D49FFF764FE0A253C4B43
:4005C0001D7003223B3B1A8040F2031202331A8040F2032202331A8040F2033202331A8034480421FFF7FEFE334834490422FFF7FFFE334833490422FFF7FAFE3248334922
:400600000422FFF7F5FE324A137843F0020313701032137843F0020313702E4C237843F040032370A2F58632513A137843F010031370294829490822FFF7DAFE2848294958
:400640000822FFF7D5FE284828492A46FFF7D0FE274828490822FFF7CBFE274827490822FFF7C6FE264827490822FFF7C1FE4423254A137002F27D121370C422234B1A70EC
:40068000C82203331A70224A137843F008031370FFF712FE1F4821460E22FFF7A9FE38BD00480040E8460040F02D0000AC000048835800400076004008760040880D0048CF
:4006C000107600408C0D004818760040900D004803500140A043004002510040500D0048C2510040580D0048F0510040600D0048125100406C0D004822510040740D00489B
:40070000325100407C0D0048DB040140D818014022430040B04300400230800803D000BF01380046FCD17047EFF3108072B6704780F31088704700BF0B4A7F2313708021C0
:40074000517007E0DA0002F1804202F5F042013BDBB21370002BF5D1DB0003F1804303F5F04300221A7070470C81FF1F01BE704708B5034B1B7A03FB00F0FFF7CDFF08BD86
:400780001481FF1F70B504460E46074B1D681F2802D90020FFF7EAFF04F01F04103455F8240045F8246070BD08ED00E038B504460D46072902D90020FFF7D8FF1F2C02D994
:4007C0000020FFF7D3FF04F01F0000F1604000F564406D01EDB2057038BD00BF10B59DF80840012C4AD10138092826D8DFE800F00525250525250D15251D0F2B02D9214815
:4008000000781BE02048007818E00F2B02D91F48007813E01E48007810E00F2B02D91D4800780BE01C48007808E00F2B02D91B48007803E01A48007800E0002040B201EB8C
:40084000401101FB02F1C90B8AB20D2B0BD8C3F10E0289B211418AB2124901EB8401013301F8023C05E00F4B03EB84030F2103F8021C013C0B4B23F8242010BD0020FFF777
:4008800075FF10BD180100491C010049190100491D0100491A0100491E0100491B0100491F010049AC81FF1FF8B50746FFF73CFF06460D4D2B7843F003032B700B4C237846
:4008C00043F0030323700A4B1F700320FFF750FF2B7803F0FC032B70237803F0FC0323703046FFF725FFF8BDF8460040F946004092580040F8B50022314B1A7101285DD1F7
:400900003822304B1A70042202331A70062601331E70002401331C7001331C703F2201331A7002331C7001331C7001331C7001250A331D70502203F527631A700A220133B3
:400940001A702C2201331A7001331C70442203331A70482201331A7001331D70022702331F70122201331A70282201331A70EB2201331A705220FFF797FF5822124B1A7001
:4009800001331C70052205331A7001331F7001331C7001331C70204600F04EF943F233320A4B1A603046294600F06AF91820294600F0ECF91D200649FFF7E4FEF8BD00BFB9
:4009C000AC81FF1F004E004094580040C081FF1F150C0000F0B583B0284D01272F70284E00247471102000F039F9102000F0BCF91D200721FFF7DAFE0422224B1A70013334
:400A00001C7007331C70204A137843F0180313701E4B1C7003F2F5231C7001331C700A22A3F209331A7001331C7002331C705B2205331A705E2201331A7004331C701422D2
:400A4000A3F68C231A700097022048F6F0514FF400421023FFF7C2FE2B7806EB830313F8022C0B4B1A702B78013B36F82320094B1A802878FFF73EFF03B0F0BD2481FF1F97
:400A8000AC81FF1F96580040075B0040935800400E4E00400C4E004070B5FFF745FE06462A4B1B782A4B1A7842F001021A701A7842F010021A7010331A7842F001021A704E
:400AC0001A7842F010021A70224D2B7843F002032B70214C237843F0020323701F4A137843F0030313700320FFF742FE2B7803F0FD032B70237803F0FD032370184A137896
:400B000043F0060313707A22164B1A70164A137843F0010313701032137843F0010313700F3A137843F0020313701032137843F0020313704FF000530C4A1360A2F5C07208
:400B400013603046FFF7F4FD70BD00BF2481FF1FAA430040F8460040F9460040915800407758004082580040A143004080E200E008B5084B9B794BB9064BDB7913F0FF0F36
:400B800001D1FFF727FF0122024B9A71FFF784FF08BD00BFAC81FF1F024A137843F0010313707047004E0040154B1B7803F00303012B07D8134B1888023B1B889BB243EA5F
:400BC000004013E0022B0AD10E4B1888023B1B7843EA00430C4A107843EA002006E00B4B188883B2074A108843EA0040084B1B7913F0FF0F02D00022054B5A71704700BF72
:400C0000144E0040124E0040114E0040104E0040AC81FF1F704700BF10B5002404E02046FFF78EFC0134E4B2012CF8D9FF22014B1A7010BD2581FF1F10B50446FFF7ECFF80
:400C40002046FFF76FFC014B1C7010BD2581FF1F014B188880B2704784400040034B1A7800F0F80010431870704700BF86400040024B187800F00700704700BF86400040FC
:400C800070B504460D46FFF7F3FF0646FFF7E0FF844257D02C4B1B7803F00203DAB296B900B184B938B9294B1C80294A137803F0BF03137070BD264A137843F04003137059
:400CC000224B1C8070BD22B3002322490B7002260F310E7004310B700C390B7803F07F030B701B4B1B7813F0080F00D08CB91A4B18800721013B1970164B1B7813F0010F79
:400D0000FAD111490B7803F0FD030B700021114B19700D4B1B7813F0020F0DD00E4B1C800DB1032200E001220A4B1A70094B1B7813F0010FFAD170BD044B1C8002490B7856
:400D400013430B7070BD00BFA243004084400040864000400140004002400040014B188880B2704700410040034B1A7800F0F80010431870704700BF02410040024B1878B5
:400D800000F00700704700BF0241004070B505460E46FFF7F3FF0446FFF7E0FF854256D02B4B1B7803F0010294B900B185B938B9284B1D80284A137803F0BF03137070BDED
:400DC000254A137843F040031370224B1D8070BD22B3002321490B70012413310C7004390B7008390B7803F07F030B701A4B1B7813F0080F00D08DB9194B18800721013B13
:400E00001970164B1B7813F0010FFAD110490B7803F0FE030B700021104B19700C4B1B7813F0010F0DD00E4B1D800EB1032200E001220A4B1A70094B1B7813F0010FFAD1AC
:400E400070BD044B1D8002490B7813430B7070BDA143004000410040024100400140004002400040054A137843F0040313701032137843F004031370704700BFA8430040A0
:400E8000054B1A7802F0FD021A701A7800F0020010431870704700BF28580040014B1870704700BF825B0040094B1B7803F00C035B08084A127812F0040F00D0013303F1A4
:400EC000924393F82831DBB2034A1370704700BF28580040295800400A46004008B51822084B1A700133002018701A7842F008021A701A7842F002021A70FFF7C1FFFFF74F
:400F0000D3FF08BD2858004008B5074B1B7823B9FFF7E4FF0122044B1A70FFF7A3FF7820FFF7BCFF08BD00BFB481FF1F08B5064B1A7802F0F3021A701A7800F00C0010435D
:400F40001870FFF7B1FF08BD28580040024A137843F080031370704778650040014B1870704700BF89650040014B1878704700BF69650040014B1860704700BF28650040FB
:400F8000014B1868704700BF48650040014B1860704700BF0865004008B501E0FFF7F0FFFFF7E2FF10F0080FF8D108BD08B548F69F40FFF7DFFF48F69F40FFF7E7FFFFF77F
:400FC000B3FB064A137843F010031370FFF7B0FBFFF7E2FF0020FFF7C1FF08BD9965004008B5054B1B7823B9FFF7E0FF0122024B1A70FFF7ABFF08BDB581FF1F054A137870
:4010000043F0040313701032137843F004031370704700BFA74300400F490B7803F0FC0200F0030313430B7001280AD10B4B1B78DBB20B4A13700B4B1B78DBB201321370B8
:401040007047094B1B78DBB2054A1370074B1B78DBB201321370704742580040120100493446004016010049B1010049B901004908B50120FFF7D0FF0B4B1A7842F0200267
:401080001A701A7802F0FB021A701A7842F008021A7003F295231A7802F0E7021A701A7842F010021A7008BD4258004008B5054B1B7823B9FFF7DCFF0122024B1A70FFF763
:4010C0009DFF08BDB681FF1F054A137843F0020313701032137843F002031370704700BFA8430040054B1A7802F0FD021A701A7800F0020010431870704700BF245800408E
:40110000014B1870704700BF815B0040094B1B7803F00C035B08084A127812F0040F00D0013303F1924393F83031DBB2034A1370704700BF24580040255800400946004078
:4011400008B51822084B1A700133002018701A7842F008021A701A7842F002021A70FFF7C1FFFFF7D3FF08BD2458004008B5074B1B7823B9FFF7E4FF0122044B1A70FFF7CD
:40118000A3FF7820FFF7BCFF08BD00BFB781FF1F08B5064B1A7802F0F3021A701A7800F00C0010431870FFF7B1FF08BD24580040054A137843F0200313701032137843F016
:4011C00020031370704700BFA2430040084A137843F060031370A2F5A652133A137843F0010313701032137843F001031370704777580040054B1A7802F0FC021A701A785C
:4012000000F0030010431870704700BF5858004008B50220FFF7EEFF08BD00BF08B5054B1B7823B90122034B1A70FFF7F1FFFFF7CDFF08BDB881FF1F084A137843F0600386
:401240001370A2F5A652133A137843F0080313701032137843F008031370704777580040054B1A7802F0FC021A701A7800F0030010431870704700BF5E58004008B5012069
:40128000FFF7EEFF08BD00BF08B5054B1B7823B90122034B1A70FFF7F1FFFFF7CDFF08BDB981FF1F044A137803F0FD03400000F00200184310707047C05100402DE9F04F55
:4012C0008BB01F4680468946164600F071F9DFF8D8A204469AF900300D46013304D03046394600F085FF20B9204629460BB0BDE8F08F4046494600F07BFF834660BB30467B
:4013000039460022002301F0D7FC0028ECD09AF900309E4C01229E4900208DE814005A1CCDF820B0CDE90289CDE90467CDE906010DD0022B0BD0684600F086FF002800F097
:401340009380089B1BB101F011FD089B0360DDE906010BB0BDE8F08F404649460022002301F0AAFCF8B1304639460022002301F0A3FC834600284ED084489AF90030012116
:40138000002200240025CDE90289CDE90467CDE90645019000910892002BCCD07C4B0022CDE90623D3E72046294600F01BFF834600285ED0204629460022002301F07CFCD9
:4013C000002891D04046494600F00CFF00288BD03046394600F006FF002885D09AF900306A480421002200240025022BCDE90289CDE90467CDE9064501900091089200F029
:401400008880684600F020FF002800F08280089B002B9CD097E73046394600F0E3FE00283FF462AF304639460022002301F04EFC00283FF459AF55499AF800300122CDF8C3
:4014400020B0CDE90289CDE9046701910092002B3CD050490020022BCDE9060130D101F085FC21230360D2E701F080FC2123036067E74046494600F0B5FE00289AD0304647
:40148000394600F0AFFE002894D02046294600F0AFFE00BB3D4A9AF8004001230890CDE90289CDE90467019200937CB10020002102460B4601F0C2FA022CCDE90601CED07D
:4014C000684600F0C1FE0028A1D1C8E700220023CDE90623F4E72D499AF900300322CDF820B0CDE90289CDE9046701910092ABB9294D4FF060444046494600220023CDE901
:40150000064501F0E3FB50BB9AF90030022B7FF478AF01F02BFC2223036078E71F4D00244046494600220023CDE9064501F0CEFB0028E9D000221A4B3046394601F054F99D
:4015400004460D4600F088FE22462B4601F0B4FB0028D9D10F4B0022CDE90623D4E700220F4B3046394601F03FF904460D4600F073FE22462B4601F09FFB0028C4D1094BEA
:401580004FF06042CDE90623BEE700BF2C2E00000000F03F0000F0FFFFFFEF470000F07F0000E03FFFFFEFC72681FF1F000000002DE9F04F144623F00047024657EA0400BE
:4015C0000E468FB01D469C46214634D06E4B26F0004A9A459346B14626DC24D09F4223DC694B9F4200F08F80B9F1000FC0F28F804FF0000879BB644B9F4200F0A580634B2E
:401600009F4267D0BCF1804F00F0E283604B9C4521D1B9F1000F1EDB104631460FB0BDE8F04F00F015BD62B10AF1404000F5801050EA0B0007D10346544918460FB0BDE887
:40164000F08F5745CCDD53480FB0BDE8F04F00F0FDBD4FF0000810463146CDF808C0009200F0BCFD009ADDF808C0BBF1000F20D04FEAD97909F1FF3958EA09037AD0464B1A
:401680009F4240F38F8003F104739F4240F31084424B9A4540F39283BCF1000F40F3928337A1D1E900010B46024601F09DF80346C3E7BAF1000F04D0344B29F0404E9E4500
:4016C000D6D1BCF1000FC0F2B683B9F1000F08DB0346B2E7BCF1000FC0F2528413463146ABE70AF1404A0AF5801A58EA0A0340F05E8402460B4600F0C3FE0B46024601F025
:401700009DF9034699E700293FF46EAF8CE7244B9F422CDCA3F154739F427FF769AF40F213403B15834240F34B84C3F58663033321FA03F000FA03F38B427FF459AF00F093
:401740000100C0F1020855E70AF1404303F5801353EA0B0300F03983104B9A4540F36483BCF1000FC0F22E832346294665E74FF002083FE7104631463346BCE7AFF3008060
:401780009C7500883CE4377E0000F07F0000F03F0000E03F602E00000000E041FFFFEF3FFFFF3F43BAF5801F4FF0000205DACA4B01F01AF88A466FF034024FEA2A53C74EED
:4017C000CAF3130AA3F2FF334AF07F571344B2450C9347F4401740F3D083C14B9A4540F307840026B4460C9BA7F5801701330C933946BC4B4FEACC0C6344D3E900AB524680
:401800005B46CDF834C0CDE9060100F039FE52465B46CDE90801DDE9060100F033FE02460B460020B04901F009F902460B46DDE90801CDE90A2300F0D7FF02460B46CDE97F
:401840000223CDE904237B1043F0005303F5002399190020002306460F460293DDE902231046194632463B46CDE9000100F0BCFF02460B46DDE9080100F002FE5246CDE96E
:4018800008015B463046394600F0FAFD02460B46DDE9060100F0F4FD02460B46DDE9000100F0A2FF02460B46DDE9080100F0E8FDDDE90A2300F098FFDDE90423CDE9060109
:4018C0001046194600F090FF02460B4606460F4600F08AFF6EA3D3E9002382468B463046394600F081FF6CA3D3E9002300F0CAFD32463B4600F078FF69A3D3E9002300F033
:40190000C1FD32463B4600F06FFF67A3D3E9002300F0B8FD32463B4600F066FF64A3D3E9002300F0AFFD32463B4600F05DFF62A3D3E9002300F0A6FD02460B4650465946AA
:4019400000F052FFDDE9042306460F46DDE9000100F098FDDDE9062300F046FF32463B4600F090FDDDE9006782468B4632463B463046394600F038FF00225C4BCDE908014F
:4019800000F080FD52465B4600F07CFD02980F460646DDE9000132463B4600F025FF32463B46CDE90001DDE9060100F01DFF0022CDE906014D4B3046394600F061FDDDE900
:4019C000082300F05DFD02460B465046594600F057FDDDE9042300F007FF02460B46DDE9060100F04FFD82468B46DDE9000152465B4600F047FD32A3D3E9002302980F466B
:401A0000064600F0F1FE30A3D3E90023CDE904013046394600F0E8FEDDE90023CDE906013046394600F02CFD02460B465046594600F026FD26A3D3E9002300F0D5FE0246FB
:401A40000B46DDE9060100F01DFDDDF834C0284BCDF818C06344D3E9002300F013FDCDE900010C9800F05AFE06460F46DDE90401204BDDF818C09C44DDE90023DCE900AB7F
:401A800000F000FD52465B4636E000BFAFF30080EF4E454A287ECA3F65DBC9934A86CD3F01411DA96074D13F4D268F515555D53FFFAB6FDBB66DDB3F033333333333E33FC4
:401AC000000000E009C7EE3FF5015B14E02F3EBEFD033ADC09C7EE3F000040438E98030079B60B00502E00000000F03F00000840402E0000302E0000CDE906AB00F0C2FCCA
:401B000032463B4600F0BEFC029832463B4682468B4600F0B5FCDDE9062300F0B1FCDDE9042300F0ADFC02460B46DDE9000100F0A7FCCDE9020108F1FF3858EA09030CBF2E
:401B4000D54BD64B0022CDE904230023CDE900450093DDE90067204632463B46294600F08FFC52465B4600F03FFEDDE90223804689462046294600F037FE02460B464046FF
:401B8000494600F07FFC04460D465246304639465B46CDE9024500F027FE06460F4620463B462946324600F06DFCBD4B824699428946884640F3138101F13F4303F5E00328
:401BC000034340F0E581A0A3D3E90023DDE9020100F058FC324604460D463B465046494600F04EFC02460B462046294601F08CF8002840F0CD814C462015A0F2FE304FF492
:401C0000801101414144C1F30A50A64CA0F2FF35C1F3130BC0F5826003302C414BF4801B21EA040300224BFA00FB3946304600F027FC06460F46DDE902018BEAE87B0BEBEF
:401C4000D87B32463B464FEA0B5A00F01BFC80A3D3E90023002420460D4600F0C5FD3246804689463B462046294600F009FC02460B46DDE9020100F003FC77A3D3E9002340
:401C800000F0B2FD76A3D3E9002306460F462046294600F0A9FD02460B463046394600F0F1FB06460F4632463B464046494600F0E9FB42464B4604460D4600F0E1FB0246CA
:401CC0000B463046394600F0DBFB2246804689462B462046294600F087FD63A3D3E9002306460F4600F080FD61A3D3E9002300F0C7FB32463B4600F077FD5FA3D3E900235B
:401D000000F0C0FB32463B4600F06EFD5CA3D3E9002300F0B5FB32463B4600F065FD5AA3D3E9002300F0AEFB32463B4600F05CFD02460B462046294600F0A2FB06460F4688
:401D400032463B462046294600F04EFD0022CDE900014FF080433046394600F091FB02460B46DDE9000100F069FE424606460F464B462046294600F037FD42464B4600F09B
:401D800081FB02460B463046394600F079FB22462B4600F075FB02460B4600203F4900F06FFB8A44BAF5801F0246C0F227815346DDE9040100F018FD03463EE4BCF1000F93
:401DC000FFF66EAC0023194637E40B46334934E433461046314600F007FD03462DE4324B21F000449C4240F3FA80304B0B4403430CD132463B4600F043FB02460B46DDE9EE
:401E0000020100F06DFF00283FF4F6AE20A3D3E90023DDE9040100F0E7FC1DA3D3E9002300F0E2FC034608E4BCF1000FCADA234605F1004101E402460B460020174900F074
:401E4000FDFD42E4AFF30080FE822B654715973C00000000432EE63FEF39FAFE422EE63F396CA80C615C20BED0A4BE726937663EF16BD2C541BDBB3E2CDE25AF6A56113FE2
:401E800093BDBE166CC1663F3E5555555555C53F59F3F8C21F6EA5010000F0BF0000F03FFFFF8F40FFFF0F00FFCB904000346F3F634B9A4582DD634B9A453FF7EDAB00226B
:401EC000604B00F0DDFA54A3D3E9002306460F4600F08AFC52A3D3E90023CDE900013046394600F081FC3246CDE902013B463046394600F079FC002282468B4630463946DA
:401F0000514B00F071FC02460B4647A1D1E9000100F0B6FA32463B4600F066FC02460B4600204A4900F0ACFA02460B465046594600F05AFC3EA3D3E9002300F055FC024642
:401F40000B46DDE9020100F09BFA06460F46DDE9000132463B4600F095FADDE90023002082468B4600F08CFA02460B463046394600F086FACDE90201DDE50026B44637E416
:401F8000334600202F4900F059FD0346FFF755BB29A3D3E90023DDE9040100F025FC26A3D3E9002300F020FC0346FFF746BBB8F1010F03467FF441AB01F10041FFF73DBB7E
:401FC00000297FF446ABC3F58263033347FA03F000FA03F3BB4217D08846FFF710BB1B4B9C423FF709AEDDE90023924693462EE64FF480264FF0010CFFF7FABB5A4600F09B
:40200000BBF902460B46D3E600F00100C0F10208FFF7F5BAAFF30080000000604715F73F44DF5DF80BAE543E555555555555D53FFE822B654715F73F9C7500883CE4377E50
:40204000FEFFEF3F0000F03F0000D03F0000E03F2DE9F041604E0C46B6460E40764505460B4600F098800029024676DD5FEA215E00F08180AEF2FF3EC3F313031EF0010FA4
:4020800043F480135ED100273C46D10F01EB43034FEA6E0E520016204FF4001165189D424FEAD2764FEA420202DC5B1B6C180F44013806EB43034FEA5101EFD1844620268B
:4020C0004FF000410AE0A34220D0D50F013E4FEA510105EB43034FEA420220D09C420CEB0105F0DA002D05EB010C09DBA0461B1B954288BF03F1FF334446521B0844E4E72F
:40210000BCF1000FF2DB04F10108F0E7954217D8002D05EB010C48DB98460023ECE7134315D140087B1003F17F5303F50013FA0703EB0E57394648BF40F00040BDE8F0811A
:402140001C46C2E7D10F01EB430352009BE7411C31D000F001031844E3E721F000460643ECD079BB8E46D30AAEF1150E5205002BF9D0DC0222D400215B00D80201F101018A
:40218000FAD5C1F10100C1F1200422FA04F4234386448A406EE702460B4600F025FB2A46234600F06FF9BDE8F081BCF1000FAADAA0460023A0E701373046B3E720240120F7
:4021C0000021E2E702460B4600F05AF902460B4600F034FCB2E700BF0000F07F21F00041704700BF41F0004101F58010C00F704710B431F0004408D0114BA1F580129A42F2
:4022000008D804205DF8044B704718B902205DF8044B704701F1FF41094B01F5E0019942EFD9B4F5801F01D20320EBE7054B9C4201D00020E6E7B0FA80F04009E2E700BF0A
:40224000FFFFDF7F0000F07F0020704700200149704700BF0000F87FF0B5C1F30A5EAEF2FF35132D83B002460B460C464FEAD17607462EDC002D48DB3C49294101EA03006E
:4022800010432BD049080B4053EA02070CD04FF48023132D24EA010143FA05F444EA01040CBF4FF0004700273149234601EBC606D6E900453A462046294600F0E3F8CDE986
:4022C0000001DDE9000122462B4600F0D9F803B0F0BD332D06DDB5F5806F43D01046194603B0F0BDAEF2134E4FF0FF3121FA0EF10142F3D049080142D6D04FF0804320EA42
:40230000010143FA0EF70F43CEE721F000410143E4D0C3F3130141EA000CCCF1000141EA0C0C13495C0C4FEA1C3C0CF4002C640401EBC6014CEA0403D1E900452046294659
:4023400000F0A0F8CDE90001DDE9000122462B4600F096F8024621F0004141EAC67310461946BDE700F08EF8BAE700BFFFFF0F00682E000000000000F8B5C1F30A56044625
:402380000D460B46174616BB21F00043034332D00022314B00F028FA304A044697420D460B4637DB40F2FE72C1F30A56363E3E44964215DD24A1D1E9000122462B4600F0ED
:4023C00053F821A3D3E9002300F00EFAF8BD40F2FF72964224D040F2FE723E449642E9DC002E09DD23F0FF4323F4E00343EA065520462946F8BDF8BD16F1350F15DA4CF270
:4024000050339F42D6DC12A1D1E9000122462B4600F02AF80EA3D3E9002300F0E5F9F8BD02460B4600F02EF8F8BD23F0FF4323F4E003363643EA0655204629460022084B29
:4024400000F0D2F9F8BD00BF9C7500883CE4377E59F3F8C21F6EA50100005043B03CFFFF0000903CAFF3008003F0004321F0004243EA0201704700BF81F0004102E000BF99
:4024800083F0004330B54FEA41044FEA430594EA050F08BF90EA020F1FBF54EA000C55EA020C7FEA645C7FEA655C00F0E2804FEA5454D4EB5555B8BF6D420CDD2C4480EA51
:4024C000020281EA030382EA000083EA010180EA020281EA0303362D88BF30BD11F0004F4FEA01314FF4801C4CEA113102D0404261EB410113F0004F4FEA03334CEA1333E5
:4025000002D0524263EB430394EA050F00F0A780A4F10104D5F1200E0DDB02FA0EFC22FA05F2801841F1000103FA0EF2801843FA05F359410EE0A5F120050EF1200E012A39
:4025400003FA0EFC28BF4CF0020C43FA05F3C01851EBE37101F0004507D54FF0000EDCF1000C7EEB00006EEB0101B1F5801F1BD3B1F5001F0CD349085FEA30004FEA3C0C68
:4025800004F101044FEA445212F5800F80F09A80BCF1004F08BF5FEA500C50F1000041EB045141EA050130BD5FEA4C0C404141EB010111F4801FA4F10104E9D191F0000F12
:4025C00004BF01460020B1FA81F308BF2033A3F10B03B3F120020CDA0C3208DD02F1140CC2F10C0201FA0CF021FA02F10CE002F11402D8BFC2F1200C01FA02F120FA0CFCB3
:40260000DCBF41EA0C019040E41AA2BF01EB0451294330BD6FEA04041F3C1CDA0C340EDC04F11404C4F1200220FA04F001FA02F340EA030021FA04F345EA030130BDC4F12C
:402640000C04C4F1200220FA02F001FA04F340EA0300294630BD21FA04F0294630BD94F0000F83F4801306BF81F480110134013D4EE77FEA645C18BF7FEA655C29D094EAD0
:40268000050F08BF90EA020F05D054EA000C04BF1946104630BD91EA030F1EBF0021002030BD5FEA545C05D14000494128BF41F0004130BD14F580043CBF01F5801130BDBD
:4026C00001F0004545F0FE4141F470014FF0000030BD7FEA645C1ABF194610467FEA655C1CBF0B46024650EA013406BF52EA033591EA030F41F4002130BD00BF90F0000F43
:4027000004BF0021704730B54FF4806404F132044FF000054FF0000150E700BF90F0000F04BF0021704730B54FF4806404F1320410F0004548BF40424FF000013EE700BFFA
:4027400042004FEAE2014FEA31014FEA02701FBF12F07F4393F07F4F81F06051704792F0000F14BF93F07F4F704730B54FF4607401F0004521F0004120E700BF50EA010226
:4027800008BF704730B54FF000050AE050EA010208BF704730B511F0004502D5404261EB41014FF4806404F132045FEA915C3FF4DCAE4FF003025FEADC0C18BF03325FEAAC
:4027C000DC0C18BF033202EBDC02C2F1200300FA03FC20FA02F001FA03FE40EA0E0021FA02F11444C1E600BF70B54FF0FF0C4CF4E06C1CEA11541DBF1CEA135594EA0C0FF6
:4028000095EA0C0F00F0DEF82C4481EA030621EA4C5123EA4C5350EA013518BF52EA033541F4801143F4801338D0A0FB02CE4FF00005E1FB02E506F00042E0FB03E54FF001
:402840000006E1FB03569CF0000F18BF4EF0010EA4F1FF04B6F5007F64F5407404D25FEA4E0E6D4146EB060642EAC62141EA55514FEAC52040EA5E504FEACE2EB4F1FD0C6C
:4028800088BFBCF5E06F1ED8BEF1004F08BF5FEA500E50F1000041EB045170BD06F0004646EA010140EA020081EA0301B4EB5C04C2BFD4EB0C0541EA045170BD41F48011B4
:4028C0004FF0000E013C00F3AB8014F1360FDEBF002001F0004170BDC4F10004203C35DA0C341BDC04F11404C4F1200500FA05F320FA04F001FA05F240EA020001F0004237
:4029000021F0004110EBD37021FA04F642EB06015EEA430E08BF20EAD37070BDC4F10C04C4F1200500FA04F320FA05F001FA04F240EA020001F0004110EBD37041F1000185
:402940005EEA430E08BF20EAD37070BDC4F1200500FA05F24EEA020E20FA04F301FA05F243EA020321FA04F001F0004121FA04F220EA020000EBD3705EEA430E08BF20EA3F
:40298000D37070BD94F0000F0FD101F00046400041EB010111F4801F08BF013CF7D041EA060195F0000F18BF704703F00046520043EB030313F4801F08BF013DF7D043EA6E
:4029C0000603704794EA0C0F0CEA135518BF95EA0C0F0CD050EA410618BF52EA4306D1D181EA030101F000414FF0000070BD50EA410606BF1046194652EA430619D094EA60
:402A00000C0F02D150EA013613D195EA0C0F05D152EA03361CBF104619460AD181EA030101F0004141F0FE4141F470014FF0000070BD41F0FE4141F4780170BD70B54FF031
:402A4000FF0C4CF4E06C1CEA11541DBF1CEA135594EA0C0F95EA0C0F00F0A7F8A4EB050481EA030E52EA03354FEA013100F088804FEA03334FF0805545EA131343EA1263E3
:402A80004FEA022245EA111545EA10654FEA00260EF000419D4208BF964244F1FD0404F5407402D25B084FEA3202B61A65EB03055B084FEA32024FF480104FF4002CB6EB42
:402AC000020E75EB030E22BFB61A754640EA0C005B084FEA3202B6EB020E75EB030E22BFB61A754640EA5C005B084FEA3202B6EB020E75EB030E22BFB61A754640EA9C00AB
:402B00005B084FEA3202B6EB020E75EB030E22BFB61A754640EADC0055EA060E18D04FEA051545EA16754FEA06164FEAC30343EA52734FEAC2025FEA1C1CC0D111F4801FF0
:402B40000BD141EA00014FF000004FF0004CB6E711F4801F04BF01430020B4F1FD0C88BFBCF5E06F3FF6AFAEB5EB030C04BFB6EB020C5FEA500C50F1000041EB045170BDDF
:402B80000EF0004E4EEA113114EB5C04C2BFD4EB0C0541EA045170BD41F480114FF0000E013C90E645EA060E8DE60CEA135594EA0C0F08BF95EA0C0F3FF43BAF94EA0C0F68
:402BC0000AD150EA01347FF434AF95EA0C0F7FF425AF104619462CE795EA0C0F06D152EA03353FF4FDAE1046194622E750EA410618BF52EA43067FF4C5AE50EA41047FF456
:402C00000DAF52EA43057FF4EBAE12E74FF0FF3C06E000BF4FF0010C02E000BF4FF0010C4DF804CD4FEA410C7FEA6C5C4FEA430C18BF7FEA6C5C1BD001B050EA410C0CBFAC
:402C400052EA430C91EA030F02BF90EA020F0020704710F1000F91EA030F58BF994208BF90422CBFD8176FEAE37040F0010070474FEA410C7FEA6C5C02D150EA013C07D1AA
:402C80004FEA430C7FEA6C5CD6D152EA033CD3D05DF8040B704700BF8446104662468C461946634600E000BF01B5FFF7B7FF002848BF10F1000F01BD4DF808EDFFF7F4FFF9
:402CC0000CBF012000205DF808FB00BF4DF808EDFFF7EAFF34BF012000205DF808FB00BF4DF808EDFFF7E0FF94BF012000205DF808FB00BF4DF808EDFFF7CEFF94BF012022
:402D000000205DF808FB00BF4DF808EDFFF7C4FF34BF012000205DF808FB00BF4FEA410212F5001215D211D56FF47873B3EB625212D94FEAC12343F0004343EA505311F0CD
:402D4000004F23FA02F018BF404270474FF00000704750EA013005D111F0004008BF6FF0004070474FF00000704700BF014B1868704700BF8881FF1F0E4B70B51E460E4CF6
:402D80000025E41AA410A54204D056F8253098470135F8E700F072F8084B094C1E46E41AA4100025A54204D056F8253098470135F8E770BD882E0000882E0000882E00000C
:402DC000902E000010B5431E0A44914204D011F8014B03F8014FF8E710BD03460244934202D003F8011BFAE77047000000000000035B004024430040400000004051004073
:402E0000300000000140001000140140000800400140000A004C0140000210500140100000500140400D004810000000706F770000000000000000000000004003B8E23F41
:402E4000000000000000000006D0CF43EBFD4C3E000000000000F03F000000000000F83F0000000000000000000000000000304300000000000030C343000000F8B500BF7D
:402E8000F8BC08BC9E4670474D00000009020000F8B500BFF8BC08BC9E46704729000000B02E00000881FF1F8800000038000000000000007F8000000F00000000007C929E
:402EC000F82401004B000000C068780401FF01000000000000000000000000000000000000000000000000000000000000000000782E00000000000000000000000000001F
:402F00000000000000000000000000000000000000000000000000000000000000000000000000000000000000000000000000002881FF1F000000000000000000000000CA
:402F40000000000000000000000000000000000000000000000000000000000000000000000000000000000000000000000000000000000000000000000000000000000051
:402F80000000000000000000000000000000000000000000000000000000000000000000000000000000000000000000000000000000000000000000000000000000000011
:402FC00000000000000000000000000000000000000000000000000000000000000000000000000000000000000000000000000000000000000000000000000000000000D1
:403000000000000000000000000000000000000000000000000000000000000000000000000000000000000000000000000000000000000000000000000000000000000090
:020000040003F7
:0200000480007A
:40000000014500400A520040025B004002640040026500401700014025010140410201403C03014037040140500501403606014044070140280801404C0901402B0A014059
:40004000470B0140220C01403D0D0140280E01402D0F014023140140451501401E1601404417014047180140581901404A1A0140541B01400E4001400D4101400C42014087
:4000800011430140074401401845014019460140194701401348014017490140134C01400E4D014007500140025101407E02012010A8112918041928604861497804790C58
:4000C0007C4027842F84850F8D038703890F22013201580459045C225F01830487038F04931095109901A308AF08B118B301B502B704BF44D804D904DC92DF0103100604B5
:400100000A6A0B040C010D800E5011411204134014041540171118201A302440266A28012F4230043180328133013622370438203A043B403E813F088684C044C2BFC4DB40
:40014000CA98CCEBCEDE05100E010F0A11021310150E23052A012F05320133103503370C3E043F0440414106420249FF4AFF4BFF4F0150185280580459045A045B045C42A2
:400180005D995F016040624064406540668068806A806C806E80C041C106C202C9FFCAFFCBFFCD83CE03CF01D018D804D904DA04DC33DD09DF01E040E240E440E540E680AF
:4001C000E880EA80EC80EE800090010806040711080809010B020E400F1410041540160817021F0826042705280829082A012F423004370538183B023C4841A0428145A0DC
:4002000046804A084E085A025B027680800481018B088E0490409140922093049501964397C09E849F14A248A680A706C0E7C27DC4D2CA97CCC2CE57D0BDD224E244E60114
:4002400040414106420249FF4AFF4BFF4D834E034F015018580459045A045C335D095F016040624064406540668068806A806C806E80C041C106C202C5ECC602C807C9FF99
:40028000CAFFCBFFCD83CE03CF01D018D403D804D904DA04DB04DC22DD99DF05E040E240E440E540E680E880EA80EC80EE8000B0010802010560071008080B020F501004C8
:4002C000112214021502280829082A012D202E403004340235403680371038183B023F5041A0428045A0468047204A084D044E084F01558056405D045E805F217E08801021
:400300008311840A860187028F029008922094109501964297D29A809C0C9D089E059F10A101A248A440A5A0A680A702B004B208B704C0E7C235C49ACA37CCB2CE37D0BDC2
:40034000D224D6F0DE20E00CE402E60DE840020614041E0122022A0C30013208340436023A023C023E10580459045C295F0182088302842086108701884089048A808C80C0
:400380008D028E409202930495089604980199019C109E20A002A408A708AA01AC04AF10B0FFB11FB902BE01BF01D203D302D804D904DB04DC20DD20DF0100080122028445
:4003C0000305068008400AA60B580E221091110413A1140416401B011D201E221F422101281029212B012C402E40304132043310350237243B593F504101424047306940E5
:400400006B0A7E088480880489028A04922093029503964297D098089AC09D289E049F12A010A101A208A440A530A680A702C01FC2AFC45FCA9FCCEFCE3FDE20E440E604B4
:40044000EA125608580459045B045C335D905F018206860487088B108F029203932095109720980299089F01A101A702AB04AF04B004B102B202B330B401B50CB604B7014F
:40048000BE05BF45D608D80BD904DB04DC89DD90DF210360044005020642071008010A040C020F081002114012021448151019401A54200621042280234229652C402D5055
:4004C0002F08308031203208330135023620371038043A203B803C403F084D204F2059805D806002630267027802790882088B808E2091809320950498409A4A9C189D10F4
:40050000A222A344A605A780B080B311B481C0BCC25AC450CABFCCAFCE5ED618D818DE03E080E204E440E684EA12020206020C021201130114021C02200226042C02320485
:4005400034013602370152035302580459045B045C335D305F018A038C049010920894019C089E10A804B018B202B401B604B880BE41D401D80DD904DB0DDC22DD20DF0132
:400580000004018002E205100701080809400A400C020D800E20102011401302151018061A241B141C801D401E201F102002230229802A022D042F80329134103605381413
:4005C0003A803E083F805C8069906A107F088140821083508443860A8F0890109242940495C0963498409A809D40A020A1C0A282A401AA40B180B208C0CDC2BDC44DCAC9E9
:40060000CCEDCE5ED610DE20E012EA20EC01580459045C335F01800584018502860488058B018E059102950299029C059F02A102A205A602A902AC05B004B101B202B30275
:40064000B401D602D731D804D904DB0CDC33DD30DF01001602020414070209400C400D080F4811401280130A181019201A801B08220A234028402B042D402F083292330826
:400680003682380439103C023D803E845A106140686869106A426B1070807308798080108D209410966498409F18A148A280A304A4C9A602B784C0EFC2F1C40DCA35CC9F58
:4006C000CED6D604D808DE08E020E2040204030404080A010B010C04108012401508160818401A801B081D021E022002231024012501282029042A102C102E202F0230FFE6
:40070000371F39803E013F40580459045C305F018301B701D804D904DC33DF01009201010205039404100701084009480A740B040D480E040F4010881102125213481501B9
:400740001901214022802540270129012A442B042E102F8030403108320233103682370439803A113B043D823E04C0CFC2FFC41FCAAFCCDFCEDF060407010E012A0230043F
:400780003301340136025608580459045B045C225D905F01800184018501880189018D019001930194019901A201A301A801AB01B001B501D804D904DC22DF010106030131
:4007C0000522072008100A8A0B100F901110121013021608170219221A421BC21C8022042320240829212A182B022D202F8030103201350137223B143E483F10588062807C
:400800008004844085208A808D02911492809314960298809A089B039D229F20A740A910AA48AC40AF40B501B610C07DC23FC45ECAAFCCA5CE76D608D808E446E608E8240D
:40084000EA0BEC20EE540003040308010A021002120114032203280330013202580459045C225F018F019001A401B201B701B808BE04D602D73AD804D904DB0CDC23DD2056
:40088000DF0100A0010805220720080809100B820F90110213081502160818101D011E1022402B602D023001324033143401373638803B103E083F905B08601068046915B8
:4008C0006B8170C07204730479408102832089098B028D01914293129505968698889B0C9D2A9FA1A010A101A4C4A510A901AA40B650C077C23FC45CCA83CCEFCE7CD602DC
:40090000D802DE08E002EA02EE0240134104420649FF4AFF4BFF4F0150185280580459045A0B5B085C335D995F016040624064406540668068806A806C806E80870A8E044E
:4009400095089801990B9A02A208A705AC02AE01AF05B008B303B404B50CB603BA20BC20BE40C012C105C203C9FFCAFFCBFFCD83CE03CF01D018D403D804D904DA08DB0860
:40098000DC58DD99DF25E040E240E440E540E680E880EA80EC80EE80018004500642079008200C010F081082144019011B9021202208282029C02B102C402F083124320838
:4009C00034013602379038043C403F08421043604620474248014D10590A5A505D105E10774079087A807B017C027F01878188508C108F08900491889250932295049680A0
:400A00009780984299409A4A9B129C109D159F41A001A287A345A480A520A738AA40AD84B001B340B605C0F1C252C419CAAACCB6CE52D0DED228D60FDE9BE030E280E4080D
:400A4000E850EA02EC01EE02020806040D040E01110114041704180123032E02300331023304340C350139803F4440124105420349FF4AFF4BFF4D834E034F015018540158
:400A80005804590C5A0B5B0C5C395D395F016040624064406540668068806A806C806E80C012C104C203C5ECC620C80BC9FFCAFFCBFFCD83CE03CF01D018D608D804D90470
:400AC000DA0BDB04DC22DD99DF01E040E240E440E540E680E880EA80EC80EE8000440380060A09200A080B200C100E020F801001140815041844191121222240232029016B
:400B00002D0431023208341836053B803E0A3F80421043644510474648014D0A55105620572058405D806401780279807C028440850486048BA08D808E029180921093A0B1
:400B40009504968098129A089B429D1A9E20A001A20DA340A720A880AA02AF80B002B340B710C0CDC2D6C461CA41CCE3CED8D0FED208D618D810DE89E0C0E444E820EA086E
:400B8000EC20EE0410101201168832403301344037023B023E884310C4F0CCF0CEE0D0100E08630883108F049680970298109A019C409F13C280D840E2205280562086204E
:400BC0009680970298109A019C409F03B604D460E2102308828084108F089304970298109A019C409F03A680AF04B640C810E440E620EA4028042A4036027E20CA08CC0156
:400C0000DE0106200920130221043404500259045E826410801088108D0498049A40A622C004C202C408C802CC01D401D607D801E00C030107201820278035024410528051
:400C40008602910894209A609B02A120A662AA01B002B302C006C608C801CC01D001D404EA04EC01038009080F403702460282208380892091089A609B229C109D02A12071
:400C8000A660AF01B380B680C008C20CCC01D004E601E802EE04031021012502270150025F208701930497029A019C40AF03C010C8E0D480D620E040EA40EE401B2056100A
:400CC0005B4063048360844086108E0193049A019C40AB11B103B402B720C640D4C0D840E240E420E690E820EE201F8034015904850291089A409C109D029E02AA20AD0822
:400D0000AF40B240B320C601CC01D602E804EE04778082028B809E02AB80AD04B011B240B504DE04E404E80CEC04EE01102C110112141A0C1B011C2C1D0100AF10AA000025
:400D40001C011400000000001C010C010C01080080A0200020005B00004B4B0049000000400021210000001CDC0000000080800080005000466E28002891950000202000B5
:400D8000200CCF0017001801000100000002000000030000000000000000000000000000000000000000000000000000000000000000000000000000000000000000000002
:400DC00000000000000000000000000000000000000000000000000000000000000000000000000000000000000000000000000000000000000000000000000000000000F3
:400E000000000000000000000000000000000000000000000000000000000000000000000000000000000000000000000000000000000000000000000000000000000000B2
:400E40000000000000000000000000000000000000000000000000000000000000000000000000000000000000000000000000000000000000000000000000000000000072
:400E80000000000000000000000000000000000000000000000000000000000000000000000000000000000000000000000000000000000000000000000000000000000032
:0200000490006A
:0400000000004005B7
:0200000490105A
:04000000BC90ACAF55
:0200000490303A
:020000001ECE12
:0200000490402A
:4000000000000000000000000000000000000000000000000000000000000000000000000000000000000000000000000000000000000000000000000000000000000000C0
:400040000000000000000000000000000000000000000000000000000000000000000000000000000000000000000000000000000000000000000000000000000000000080
:400080000000000000000000000000000000000000000000000000000000000000000000000000000000000000000000000000000000000000000000000000000000000040
:4000C0000000000000000000000000000000000000000000000000000000000000000000000000000000000000000000000000000000000000000000000000000000000000
:0200000490501A
:0C00000000012E16106900012E2C2F3775
:00000001FF